:100000000C94CE200C94EB200C94EB200C94EB2061
:100010000C94EB200C94EB200C94EB200C94EB2034
:100020000C94EB200C94EB200C94EB200C94EB2024
:100030000C94EB200C94EB200C94EB200C94EB2014
:100040000C94EB200C9460240C94EB200C94EB208B
:100050000C94EB200C94EB200C94EB200C94EB20F4
:100060000C94EB200C94EB200C94EB200C94EB20E4
:100070000C94EB200C94EB200C94EB200C94EB20D4
:100080000C94EB200C94EB200C94EB200C94EB20C4
:100090000C94EB200C94EB200C94EB200C94EB20B4
:1000A0000C94EB200C94EB200C94EB207D25A125E7
:1000B000A325B225B425B925C52507634236B79BCC
:1000C000D8A71A39685618AEBAAB558C1D3CB7CCB8
:1000D0005763BD6DEDFD753EF6177231BF00000030
:1000E000803F08000000BE922449123EABAAAA2A13
:1000F000BECDCCCC4C3E00000080BEABAAAAAA3E2E
:1001000000000000BF000000803F00000000000869
:100110004178D3BB4387D1133D190E3CC3BD428206
:10012000AD2B3E68EC8276BED98FE1A93E4C80EFC4
:10013000FFBE01C4FF7F3F0000000000000025005B
:1001400028002B002E0031000000240027002A0088
:100150002D003000FFE0FFD1A4AFFF32FFD0FFFE43
:10016000FFE0FFD1AC00AEA5FFD0FFFEFFE0FFD166
:100170001001FFFEFFD0FFE0FFD1FFCFA3A0C860BA
:100180002CFF322EFF322FFF3226A68118AFFF64DC
:10019000A5FF64FF64A4FFD0FFFE003B36FDF51E03
:1001A00009A315B6207FF921F51FF80000000C0007
:1001B00000051E1E100500F8F8F8F8F8F8F8F8F831
:1001C000F8F8F8F8F8F8F8F8F8F8F8F8F800000097
:1001D000F8F8F8F8F80F0C18150312FC7EFC7EFCFA
:1001E0007EFC7EF87EF87EF83CF83C783C783C78E3
:1001F0003C783C191E781D0200003C1E00003C1E8D
:100200000000783C0000783C0000783C00007878E2
:100210000000F0780000F078000FFFFF801FFFFF64
:10022000001FFFFF001FFFFF0001E0E00003C1E02F
:100230000003C1E00003C1E0000783C0000783C0E2
:10024000007FFFFC00FFFFF800FFFFF800FFFFF852
:10025000000F0780001E0F00001E0F00001E0F0081
:10026000003E1E00003C1E00003C1E00003C1E0024
:100270000015256F1701FC006000006000006000A1
:1002800003FE000FFF801FFFC03FFFE07F6FE07E97
:1002900063F07C63F07C61F07C60007C60007E60D9
:1002A000007FE0007FF0003FFE001FFF8007FFE0BF
:1002B00000FFF0007FF00067F80061F8F861F8F8DF
:1002C00060F8FC61F8FC61F87E63F07FFFF03FFFAF
:1002D000E01FFFC00FFF8003FE0000600000600011
:1002E000006000006000251E9629020007E00078EB
:1002F000001FF800F0003FFC00F0007C3E01E00031
:10030000781E03E000F00F03C000F00F07C000F0FC
:100310000F078000F00F0F0000F00F0F0000F00F2C
:100320001E0000F00F1E0000781E3C00007C3E7C8A
:1003300000003FFC783F001FF8F8FFC007E0F1FF26
:10034000E00001E3E1F00001E3C0F00003C78078C2
:100350000003C780780007878078000787807800CF
:100360000F078078001F078078001E03C0F0003E52
:1003700003C0F0003C01F3E0007801FFC00078000A
:100380007F801C1E781F020103FF00000FFF80000A
:100390001FFFC0003F8FE0003F07E0003E03E0008A
:1003A0003F07E0003F07E0001F0FC0001F9FC00095
:1003B0000FFF80000FFF000007FC00000FF8000097
:1003C0001FF80F803FFC0F803F7E0F807E7F0F80E5
:1003D0007E3F8F80FC1FCF80FC0FFF00F807FF00DF
:1003E000F803FF00FC01FE00FC00FE007E00FE00A2
:1003F0007F83FF003FFFFF801FFFFFE007FF87F0C5
:10040000060C0C100512FCFCFC7C7C7C7C7C787857
:1004100078780924481004FB0F801F001F001F007C
:100420003E003E003E007E007C007C007C007C00A4
:10043000FC00FC00FC00FC00F800F800F800F800EC
:10044000F800FC00FC00FC007C007C007C007C00D0
:100450007E003E003E003E001F001F001F000F8078
:100460000824241004FBF0F8787C7C7C3E3E3E3F60
:100470003F1F1F1F1F1F1F1F1F1F1F1F1F1F3F3F2C
:100480003F3E3E3E7C7C7CF8F8F01010201A050EB2
:1004900004201C381E781E780FF007E0E3C7FFFF2A
:1004A000FFFFF3CF07E00FF01E781E781C38042002
:1004B00018194B28080000380000380000380000E8
:1004C00038000038000038000038000038000038DC
:1004D00000003800003800FFFFFFFFFFFFFFFFFFB5
:1004E00000380000380000380000380000380000F4
:1004F00038000038000038000038000038000038AC
:1005000000080A0A0C02FB1F1F3E3E3C7C7878F074
:10051000F00A050A0E0208FFC0FFC0FFC0FFC0FFBF
:10052000C00505050C0400F8F8F8F8F80D20401196
:1005300002FE00780078007800F000F000F001E0A2
:1005400001E001E003C003C003C003C007800780CF
:1005500007800F000F000F000E001E001E001E007F
:100560003C003C003C007800780078007800F00007
:10057000F000141E5A17010103FC000FFF001FFFBB
:10058000803F0F803E07C07C03C07C03E07C03E01B
:100590007C03E0F801F0F801F0F801F0F801F0F860
:1005A00001F0F801F0F801F0F801F0F801F0F801BD
:1005B000F0F801F0F801F07C03E07C03E07C03E05C
:1005C0007C03E03E07C03F0F801FFF800FFF00034A
:1005D000FC000C1E3C17040001F003F00FF03FF08C
:1005E000FFF0FFF0FDF0F9F0E1F081F001F001F033
:1005F00001F001F001F001F001F001F001F001F073
:1006000001F001F001F001F001F001F001F001F062
:1006100001F001F0141E5A17010103FF0007FF80CB
:100620001FFFC01FFFE03FFFF03F03F07E01F07EA1
:1006300001F07C01F00001F00003F00003F000077E
:10064000E0000FE0000FC0001F80003F0000FE0030
:1006500001FC0003F80007F0000FE0003F80007F7E
:100660000000FC0000FFFFF0FFFFF0FFFFF0FFFFC6
:10067000F0FFFFF0131E5A17020107FC001FFF00D6
:100680003FFF807FFF807FFFC0FC0FC0FC07C0F8EA
:1006900007C00007C00007C0000FC0003FC003FF35
:1006A0008003FE0003FC0003FF0003FF80001FC067
:1006B0000007E00007E00007E00003E0F807E0FCC7
:1006C00007E0FC07C07E0FC07FFF803FFF801FFF59
:1006D000000FFC00151E5A170100003F80003F80EC
:1006E000007F8000FF8000FF8001FF8001FF80030A
:1006F000EF8003CF8007CF800F8F800F8F801F0F79
:10070000801F0F803E0F803E0F807C0F80FC0F808B
:10071000F80F80FFFFF8FFFFF8FFFFF8FFFFF8FF7B
:10072000FFF8000F80000F80000F80000F80000F87
:1007300080000F80131E5A1702007FFFC07FFFC08A
:100740007FFFC07FFFC07FFFC07C00007C00007C7B
:1007500000007C00007C00007C00007CFC007DFF31
:10076000007FFF807FFFC07F0FE07E07E07C03E01B
:100770000003E00003E00003E00003E00003E0F812
:1007800007E0FC07E0FC0FC07FFF807FFF803FFE9B
:10079000000FFC00141E5A17010103FE0007FF00A2
:1007A0000FFF801FFFC03FFFC03F07E07E03E07EDA
:1007B00003E07C00007C0000FC0000F80000F9FF72
:1007C00000FBFF80FFFFC0FF0FE0FE07E0FE03F02D
:1007D000FC03F0FC03F0FC01F0FC01F07C03F07C76
:1007E00003F07E03E03F07E03FFFC01FFF800FFFE5
:1007F0000003FE00131E5A170200FFFFE0FFFFE098
:10080000FFFFE0FFFFE0FFFFE00007E00007E00080
:1008100007C0000FC0000FC0001F80001F80003FF6
:1008200000003F00003F00007E00007E0000FC0052
:1008300000FC0001FC0001F80001F80003F00003D7
:10084000F00007F00007E0000FE0000FC0000FC04D
:10085000001FC000141E5A17010107FE001FFF8071
:100860003FFFC07FFFE07FFFE07E07E07C03E07C8E
:1008700003E07C03E07C03E07E07E07F0FC03FFFE6
:10088000800FFF0007FC001FFF003FFFC07F0FE04D
:100890007C07E0FC03F0FC03F0F801F0F803F0FC47
:1008A00003F0FC03F0FE07F07FFFE03FFFC01FFFF7
:1008B000800FFF00141E5A17010103FC000FFF00F8
:1008C0001FFF803FFFC07FFFC07E07E0FC07E0FC0A
:1008D00003E0FC03F0F803F0F803F0FC03F0FC077E
:1008E000F07C07F07F0FF03FFFF03FFDF01FF9F0C5
:1008F00007E1F00003F00003E00003E00003E07C08
:1009000007E07C07C07E0FC03FFF801FFF000FFE87
:100910000007FC000514140C0500F8F8F8F8F800BE
:10092000000000000000000000F8F8F8F8F80919CD
:10093000320D02FB1F001F001F001F001F000000E0
:1009400000000000000000000000000000000000A7
:1009500000001F801F003F003E003E007C007C0026
:100960007800F800F00018153F2808020000010088
:10097000000F00003F0001FC0007E0003F0000FC0A
:100980000007E0003F0000FC0000E00000F800006D
:100990007E00000FC00003F000007E00001FC000BA
:1009A00003F000007E00001F000003180A1E280844
:1009B00007FFFFFFFFFFFFFFFFFF00000000000039
:1009C000000000000000FFFFFFFFFFFFFFFFFF1818
:1009D000153F280802800000F00000FC00003F8066
:1009E0000007E00000FC00003F000007E00000FC02
:1009F00000003F00000700001F00007E0003F00021
:100A00000FC0007E0003F8000FC0007E0000F80059
:100A100000C00000121E5A16010107FC001FFE0054
:100A20003FFF807FFF80FC0FC07807C03807C00001
:100A300007C00007C0000FC0000F80001F80003FEC
:100A400000007E0000F80001F00003E00003C00099
:100A500003C00003C00003C00003C000000000008A
:100A6000000000000003E00003E00003E00003E0FA
:100A70000003E0002627C32A02F80003FFE000007D
:100A80001FFFF800007FFFFE0000FFFFFF0003FFD5
:100A9000FFFF8007FE007FC007F8001FE00FE000A7
:100AA0000FF01FC00007F03F800003F83F01F1F195
:100AB000F83F07FDF1FC7E0FFFF0FC7E1FFFF0FC0E
:100AC0007C1F87F0FCFC3F03F07CFC3F03F07CFCC8
:100AD0003E01F07CFC3E01F07CF83E01F07CF83EEB
:100AE00001F07CF83E01F07CFC3E01F07CFC3F0311
:100AF000F0FC7C3F03F8F87C1F87F9F87E1FFFFFAE
:100B0000F03F0FFEFFE03F07FC7FC01F81F81F0092
:100B10001FC00000000FE000000007F80000000305
:100B2000FE00380001FFFFF80000FFFFF800003F63
:100B3000FFF800000FFFF8000001FFE0001B1E7827
:100B40001C0100003F0000003F8000007F8000008B
:100B50007F8000007FC00000FFC00000FFE00000B9
:100B6000FFE00001FBE00001F3F00003F3F00003FD
:100B7000F1F00003E1F80007E1F80007E0F80007F2
:100B8000C0FC000FC0FC000FC07E000F807E001F65
:100B9000FFFE001FFFFF003FFFFF003FFFFF003F82
:100BA000FFFF807E001F807E001F807E000FC0FC44
:100BB000000FC0FC0007C0F80007E0161E5A1B0318
:100BC00000FFFE00FFFF80FFFFE0FFFFE0FFFFF000
:100BD000F807F0F803F0F801F0F801F0F801F0F888
:100BE00003F0F807E0FFFFC0FFFF80FFFE00FFFFFC
:100BF000C0FFFFF0F803F8F801F8F800FCF800FC7B
:100C0000F800FCF800FCF801FCF803FCFFFFF8FF1B
:100C1000FFF0FFFFE0FFFFC0FFFF00181E5A1D029C
:100C20000101FFC003FFF00FFFF80FFFFC1FFFFEE5
:100C30003F80FE3E007F7E003F7C003F7C003FFC0B
:100C40000000FC0000FC0000F80000F80000F800C4
:100C500000F80000F80000FC0000FC00007C003FF1
:100C60007C003F7E007F3E007F3F80FE1FFFFE1F17
:100C7000FFFC0FFFF807FFE001FFC0181E5A1D031D
:100C800000FFF800FFFF00FFFFC0FFFFE0FFFFF0E5
:100C9000F80FF8F801FCF800FCF8007EF8007EF888
:100CA000003EF8003FF8003FF8003FF8001FF80052
:100CB0001FF8003FF8003FF8003FF8003FF8007EC3
:100CC000F8007EF800FCF801FCF80FF8FFFFF0FFD9
:100CD000FFE0FFFFC0FFFF00FFF800141E5A1903DA
:100CE00000FFFFE0FFFFE0FFFFE0FFFFE0FFFFE0AE
:100CF000F80000F80000F80000F80000F80000F824
:100D00000000F80000F80000FFFFE0FFFFE0FFFF39
:100D1000E0FFFFE0F80000F80000F80000F8000035
:100D2000F80000F80000F80000F80000FFFFF0FFF6
:100D3000FFF0FFFFF0FFFFF0FFFFF0131E5A180354
:100D400000FFFFE0FFFFE0FFFFE0FFFFE0FFFFE04D
:100D5000F80000F80000F80000F80000F80000F8C3
:100D60000000F80000FFFFC0FFFFC0FFFFC0FFFF53
:100D7000C0FFFFC0F80000F80000F80000F8000015
:100D8000F80000F80000F80000F80000F80000F893
:100D90000000F80000F80000F800001A1E781E029B
:100DA00001007FF00001FFFC0003FFFE000FFFFFCA
:100DB000000FFFFF801FC03F803F800FC03F000F2C
:100DC000C07E000FC07E0007C07C000000FC000059
:100DD00000FC000000FC000000F801FFC0F801FF6B
:100DE000C0F801FFC0FC01FFC0FC01FFC0FC000710
:100DF000C07C0007C07E0007C07F0007C03F80079F
:100E0000C03FE007C01FFFFFC00FFFFFC007FFFF8D
:100E1000C001FFFFC0007FFE00171E5A1D0300F82F
:100E2000003EF8003EF8003EF8003EF8003EF800B4
:100E30003EF8003EF8003EF8003EF8003EF8003E66
:100E4000F8003EFFFFFEFFFFFEFFFFFEFFFFFEFF7D
:100E5000FFFEF8003EF8003EF8003EF8003EF800C5
:100E60003EF8003EF8003EF8003EF8003EF8003E36
:100E7000F8003EF8003EF8003E051E1E0B0300F889
:100E8000F8F8F8F8F8F8F8F8F8F8F8F8F8F8F8F8E2
:100E9000F8F8F8F8F8F8F8F8F8F8F8F8F8141E5A2E
:100EA0001902000001F00001F00001F00001F00063
:100EB00001F00001F00001F00001F00001F000017C
:100EC000F00001F00001F00001F00001F00001F07D
:100ED0000001F00001F00001F00001F00001F0F865
:100EE00001F0F803F0FC03F0FC03F0FE07E07FFFE5
:100EF000E07FFFC03FFF801FFF000FFE00171E5A5C
:100F00001B0300F801F8F803F8F807F0F80FE0F811
:100F10000FC0F81FC0F83F80F87F00F87E00F8FE91
:100F200000F9FC00FBF800FBF000FFF000FFF00010
:100F3000FBF800F9FC00F9FE00F8FE00F87F00F86D
:100F40007F80F83F80F81FC0F81FE0F80FE0F80737
:100F5000F0F807F8F803F8F801FCF800FE131E5A41
:100F6000170300F80000F80000F80000F80000F88F
:100F70000000F80000F80000F80000F80000F80099
:100F800000F80000F80000F80000F80000F8000089
:100F9000F80000F80000F80000F80000F80000F881
:100FA0000000F80000F80000F80000F80000FFFF63
:100FB000E0FFFFE0FFFFE0FFFFE0FFFFE01F1E7824
:100FC000250300FFC003FEFFC003FEFFC007FEFFB6
:100FD000C007FEFFE007FEFBE00FFEFBE00FFEFB9D
:100FE000F00FBEFBF00FBEF9F01FBEF9F01F3EF987
:100FF000F81F3EF8F83F3EF8F83F3EF8FC3E3EF85A
:101000007C7E3EF87C7E3EF87E7C3EF87E7C3EF820
:101010003EFC3EF83EF83EF83FF83EF81FF83EF83A
:101020001FF83EF81FF03EF81FF03EF80FF03EF8B4
:101030000FE03EF80FE03EF807E03E191E781F0370
:1010400000FF800F80FF800F80FF800F80FFC00FA8
:1010500080FFC00F80FFE00F80FBE00F80FBF00FF0
:1010600080F9F00F80F9F80F80F8F80F80F8FC0F86
:1010700080F8FC0F80F87E0F80F87E0F80F83F0F1D
:1010800080F83F0F80F81F8F80F81F8F80F80F8F38
:1010900080F80FCF80F807CF80F807EF80F803EFD4
:1010A00080F803FF80F801FF80F801FF80F800FF5F
:1010B00080F800FF80F8007F801B1E781F0201006F
:1010C000FFE00003FFF80007FFFC000FFFFE001F1A
:1010D000FFFF003FC07F803F001F807F001FC07E5A
:1010E000000FC07E000FC0FC000FE0FC0007E0FC1A
:1010F0000007E0FC0007E0FC0007E0FC0007E0FC64
:101100000007E0FC0007E0FC0007E0FC000FE07EC9
:10111000000FC07E000FC07F001FC03F001F803F38
:10112000C07F801FFFFF000FFFFE0007FFFC0003D2
:10113000FFF80000FFE000151E5A1A0300FFFC0034
:10114000FFFF80FFFFC0FFFFE0FFFFF0F807F0F8B0
:1011500003F8F801F8F801F8F800F8F801F8F801D8
:10116000F8F801F8F807F0FFFFF0FFFFE0FFFFC01D
:10117000FFFF80FFFC00F80000F80000F80000F816
:101180000000F80000F80000F80000F80000F80087
:1011900000F80000F800001E1E7821020100FFE0A8
:1011A0000003FFF80007FFFC000FFFFE001FFFFF1A
:1011B000003FC07F803F001F807F001FC07E000F68
:1011C000C07E000FC0FC000FE0FC0007E0FC000741
:1011D000E0FC0007E0FC0007E0FC0007E0FC000783
:1011E000E0FC0007E0FC0007E0FC000FC07E000F01
:1011F000C07E000FC07F001F803F001F803FC07F68
:10120000001FFFFEFC0FFFFFFC07FFFFFC03FFFFBB
:10121000FC00FFFFFC171E5A1B0300FFFF00FFFF2F
:10122000E0FFFFF0FFFFF8FFFFF8F803FCF801FC18
:10123000F800FCF8007CF8007CF800FCF801F8F8F5
:1012400007F0FFFFE0FFFFC0FFFF80FFFFE0FFFFB1
:10125000F0F803F8F801F8F801F8F800F8F800F8E9
:10126000F800F8F800FCF800FCF800FCF800FCF8C6
:10127000007CF8007E171E5A1B020101FF8007FF49
:10128000E00FFFF01FFFF03FFFF83F01F87E00FC8A
:101290007E00FC7C007C7E00007E00003F80003FE2
:1012A000F0001FFE000FFFC003FFF0007FF80007F3
:1012B000FC0001FC00007EF8007EF8003EFC007E91
:1012C000FC007E7E00FC7FFFFC3FFFF81FFFF00F5D
:1012D000FFE003FF80171E5A190100FFFFFEFFFF0A
:1012E000FEFFFFFEFFFFFEFFFFFE007C00007C0014
:1012F000007C00007C00007C00007C00007C000082
:101300007C00007C00007C00007C00007C00007CF5
:1013100000007C00007C00007C00007C00007C0061
:10132000007C00007C00007C00007C00007C000051
:101330007C00007C00181E5A1E0300F8001FF800F5
:101340001FF8001FF8001FF8001FF8001FF8001F0B
:10135000F8001FF8001FF8001FF8001FF8001FF822
:10136000001FF8001FF8001FF8001FF8001FF8000A
:101370001FF8001FFC001FFC001FFC003F7C003F0B
:101380007E007E7F00FE3FFFFC1FFFFC1FFFF80773
:10139000FFE001FFC01C1E781E0100FC0003F0FCF2
:1013A0000007F0FE0007E07E0007E07E000FC07F30
:1013B000000FC03F001FC03F001F803F801F801FE5
:1013C000803F801F803F001FC03F000FC07F000F85
:1013D000C07E0007E07E0007E0FC0007E0FC0003A1
:1013E000F0FC0003F1F80003F9F80001F9F800013E
:1013F000FBF00001FFF00000FFF00000FFE0000044
:10140000FFE000007FC000007FC000007FC0000040
:101410003F8000261E96280100FC00FC00FCFC0119
:10142000FE00FCFC01FE00FCFC01FE01FCFE01FED6
:1014300001FC7E03FF01F87E03FF01F87E03FF013C
:10144000F87E03FF01F83F07FF83F03F07CF83F0EB
:101450003F07CF83F03F07CF83F01F0FCFC3E01FBD
:101460008F87C7E01F8F87C7E01F8F87C7E00F9F59
:1014700087E7C00F9F03E7C00FDF03EFC00FDF0355
:10148000EFC007FF03FF8007FE01FF8007FE01FF9B
:101490008007FE01FF8003FE01FF0003FC00FF0048
:1014A00003FC00FF0003FC00FF0003FC00FF001A28
:1014B0001E781C01007E001F807F003F803F803F20
:1014C000003F807E001FC07E000FC0FC000FE1F8CF
:1014D0000007F1F80003F3F00003FBE00001FFE078
:1014E0000000FFC00000FF8000007F8000007F0040
:1014F00000007F800000FF800001FFC00001FFE0CE
:101500000003F7E00003E3F00007E3F8000FC1F881
:10151000000F81FC001F80FE003F007E003F007F27
:10152000007E003F80FC001F80FC001FC0181E5A78
:10153000190100FC007FFE007E7E00FE7F00FC3F64
:1015400001FC3F01F81F83F81F83F00FC3F00FC7A2
:10155000E007E7E007EFC003FFC003FF8001FF8063
:1015600001FF0000FF0000FE00007E00007C000084
:101570007C00007C00007C00007C00007C00007C83
:1015800000007C00007C00007C00007C00161E5ADD
:101590001A02007FFFFC7FFFFC7FFFFC7FFFFC7FC8
:1015A000FFFC0001FC0003F80007F0000FF0001F33
:1015B000E0001FC0003F80007F8000FF0000FE00B1
:1015C00001FC0003FC0007F80007F0000FE0001F1B
:1015D000E0003FC0003F80007F0000FF0000FFFFF1
:1015E000FCFFFFFCFFFFFCFFFFFCFFFFFC09264C9C
:1015F0000F03F8FF80FF80FF80FF80F800F800F8FD
:1016000000F800F800F800F800F800F800F800F81A
:1016100000F800F800F800F800F800F800F800F80A
:1016200000F800F800F800F800F800F800F800F8FA
:1016300000F800F800F800FF80FF80FF80FF800DB9
:1016400020401102FEF000F0007800780078007869
:10165000003C003C003C001E001E001E000E000F5F
:10166000000F000F0007800780078003C003C0033E
:10167000C003C001E001E001E000F000F000F00074
:10168000700078007809264C0F03F8FF80FF80FF78
:1016900080FF800F800F800F800F800F800F800FE2
:1016A000800F800F800F800F800F800F800F800FC2
:1016B000800F800F800F800F800F800F800F800FB2
:1016C000800F800F800F800F800F800F800F80FFB2
:1016D00080FF80FF80FF8014194B280A0000600003
:1016E00000F00000F00000F00001F8000198000395
:1016F0009C00030C00030C00070E00060600060603
:10170000000E07000C03001C03801C0180180180E0
:101710003801C03000C03000C07000E0600060E000
:101720000070E00070C0003014040C1400FAFFFFD9
:10173000F0FFFFF0FFFFF0FFFFF00908100AFF19AC
:10174000F8007C003C003E001E000F0007000380F4
:1017500013143C1602010FFE001FFF003FFF807EA6
:101760000F807C0FC00007C0007FC00FFFC03FFF8D
:10177000C07FFFC07F07C0FC07C0FC07C0F80FC0D8
:10178000F80FC0FC0FC0FE1FC07FFFC03FF7C01F97
:10179000E3E0141E5A190300F80000F80000F800F6
:1017A00000F80000F80000F80000F80000F8000061
:1017B000F80000F80000F9FE00FBFF80FFFFC0FF0B
:1017C0000FC0FE07E0FC03E0FC03F0FC03F0FC03A9
:1017D000F0F801F0F801F0F803F0FC03F0FC03F07E
:1017E000FC03E0FE07E0FF0FC0FBFFC0FBFF80F83B
:1017F000FE0011143C1502010FFC001FFE003FFF0C
:10180000007E3F007C1F807C1F80FC0F80F8000062
:10181000F80000F80000F80000F80000F80000FCF4
:101820000F80FC1F807C1F807E3F003FFF001FFE5B
:10183000000FFC00141E5A1902000001F00001F014
:101840000001F00001F00001F00001F00001F000E3
:1018500001F00001F00001F007F9F01FFDF03FFF7B
:10186000F03F0FF07E07F07C03F0FC03F0FC03F088
:10187000FC03F0F801F0F801F0F803F0FC03F0FCD1
:1018800003F07C03F07E07F03F0FF03FFDF01FF9FF
:10189000F007F1F013143C16020107FC001FFF00D3
:1018A0003FFF003E1F807C0FC07C07C0FC07C0FFCD
:1018B000FFC0FFFFC0FFFFE0FFFFE0F80000F800FF
:1018C00000FC00007C07C07C0FC07E1F803FFF80B3
:1018D0001FFF0007FC000E1E3C0F010103FC07FC6C
:1018E0000FFC0FC00F800F800F800F800F800F80C4
:1018F000FFF8FFF8FFF8FFF80F800F800F800F80D0
:101900000F800F800F800F800F800F800F800F805F
:101910000F800F800F800F80141C541902F907F9F3
:10192000F01FFDF03FFFF03F0FF07E07F07C03F06B
:10193000FC03F0FC03F0FC03F0F801F0F801F0F810
:1019400003F0FC03F0FC03F07C07F07E07F03FFFA0
:10195000F03FFDF00FF9F003E1F00003F00003F0B9
:101960007C03F07E07E03FFFE03FFFC01FFF8003E6
:10197000FC00121E5A180300F80000F80000F800DE
:1019800000F80000F80000F80000F80000F800007F
:10199000F80000F80000F9FF00FBFF80FFFFC0FF28
:1019A0001FC0FE0FC0FC07C0FC07C0FC07C0F80743
:1019B000C0F807C0F807C0F807C0F807C0F807C0AC
:1019C000F807C0F807C0F807C0F807C0F807C0F864
:1019D00007C0061E1E0A0200FCFCFCFCFC00000006
:1019E00000007C7C7C7C7C7C7C7C7C7C7C7C7C7C2F
:1019F0007C7C7C7C7C7C0727270D04F77E7E7E7EAA
:101A00007E00000000003E3E3E3E3E3E3E3E3E3EEC
:101A10003E3E3E3E3E3E3E3E3E3E3E3E3E7EFEFE26
:101A2000FEFCF8121E5A160300F80000F80000F839
:101A30000000F80000F80000F80000F80000F800CE
:101A400000F80000F80000F81FC0F81F80F83F0001
:101A5000F87E00F8FC00F9FC00F9F800FBF000FF4C
:101A6000E000FFF000FBF000F9F800F9FC00F8FCE2
:101A700000F87E00F87F00F83F00F81F80F81FC0D4
:101A8000F80FC0051E1E0B0300F8F8F8F8F8F8F878
:101A9000F8F8F8F8F8F8F8F8F8F8F8F8F8F8F8F8C6
:101AA000F8F8F8F8F8F8F81F1450250301F8FF0FBC
:101AB000F0F9FF9FFCFBFFBFFCFF1FF8FEFE0FF0DD
:101AC0007EFC07E03EFC07E03EF807C03EF807C09A
:101AD0003EF807C03EF807C03EF807C03EF807C012
:101AE0003EF807C03EF807C03EF807C03EF807C002
:101AF0003EF807C03EF807C03EF807C03E12143C4F
:101B0000180301F9FF00FBFF80FBFFC0FF1FC0FEB1
:101B10000FC0FC07C0FC07C0FC07C0F807C0F807EF
:101B2000C0F807C0F807C0F807C0F807C0F807C03A
:101B3000F807C0F807C0F807C0F807C0F807C014D6
:101B4000143C18020103FE000FFF001FFFC03F0FEF
:101B5000C07E03E07C03F0FC01F0FC01F0FC01F02E
:101B6000F801F0F801F0F801F0FC01F0FC01F07C64
:101B700003F07E03E03F0FC01FFFC00FFF0003FE16
:101B800000141C541903F9F8FE00F9FF80FBFFC094
:101B9000FF0FC0FE07E0FC03E0FC03F0FC03F0FCD9
:101BA00003F0F801F0F801F0FC03F0FC03F0FC0393
:101BB000F0FC03E0FE07E0FF0FC0FFFFC0FBFF806B
:101BC000F9FE00F80000F80000F80000F80000F846
:101BD0000000F80000F80000F80000141C5419027E
:101BE000F907F1F01FFDF03FFDF03F0FF07E07F029
:101BF0007C03F0FC03F0FC03F0F803F0F801F0F8CC
:101C000001F0FC03F0FC03F0FC03F07C03F07E0722
:101C1000F03F0FF03FFFF01FFDF007F9F00001F07B
:101C20000001F00001F00001F00001F00001F000FF
:101C300001F00001F00C1428100301F8F0F9F0FB9A
:101C4000F0FFF0FFF0FF00FE00FC00FC00F800F8E1
:101C500000F800F800F800F800F800F800F800F8C4
:101C600000F80011143C1502010FFC003FFE007F3C
:101C7000FF007E1F807C1F807C0F807E00007F80A5
:101C8000003FF8003FFE0007FF0000FF80001F80BC
:101C9000000F80F80F80FC0F807E1F807FFF003FC9
:101CA000FE001FFC000F1A341101000080018007A4
:101CB000800F800F800F80FFFCFFFCFFFCFFFC0FFC
:101CC000800F800F800F800F800F800F800F800F9C
:101CD000800F800F800FC00FE007FE07FE01FE128D
:101CE000143C180300F807C0F807C0F807C0F8074D
:101CF000C0F807C0F807C0F807C0F807C0F807C069
:101D0000F807C0F807C0F807C0F807C0FC07C0FC18
:101D10000FC0FC0FC0FE1FC07FFFC03FF7C01FE712
:101D2000C014143C160100F803F0FC03F0FC03E0BF
:101D30007C07E07E07E07E07C03E0FC03F0FC01F5C
:101D40000F801F1F801F9F000F9F000FBF000FFEFF
:101D50000007FE0007FE0003FC0003FC0003F80080
:101D600001F800211464220100F807E01F80F80F39
:101D7000F01F00FC0FF01F00FC0FF03F007C0FF87D
:101D80003E007E1FF83E007E1FF87E003E1F7C7ED8
:101D9000003E3E7C7C003F3E7C7C001F3E7EFC0083
:101DA0001F7C3EF8001FFC3EF8000FFC3FF8000FC0
:101DB000FC1FF0000FF81FF0000FF81FF00007F8ED
:101DC0000FF00007F00FE00007F00FE00014143CE4
:101DD000160100FE03E07E07E03F0FC01F8F801F4B
:101DE0009F800FDF0007FE0007FE0003FC0003FCDE
:101DF0000003FC0007FE000FFF000FBF001F9F80C5
:101E00003F1FC03E0FC07E07E0FC07E0FC03F0145C
:101E10001C541601F8FC03F0FC03F0FC03E07E0701
:101E2000E07E07E03F07C03F0FC03F0FC01F8F801D
:101E30001F9F800F9F800FDF000FFF0007FF00072D
:101E4000FE0003FE0003FC0003FC0001FC0001F89F
:101E50000001F80001F80001F00003F00003F000B9
:101E600007E00007E00007E00011143C150200FF46
:101E7000FF00FFFF00FFFF00FFFF00003F00007EAC
:101E80000000FC0001F80003F00007F0000FE00084
:101E90000FC0001F80003F00007E0000FC0000FF1C
:101EA000FF80FFFF80FFFF80FFFF800F2952140398
:101EB000F6000200FE01FE03FE07F007E007C00780
:101EC000C007C007C007C007C007C007C007C007DA
:101ED000C00FC00F803F80FE00FC00FE00FF003FEF
:101EE000800F800FC007C007C007C007C007C0072A
:101EF000C007C007C007C007E007E003FE03FE01FC
:101F0000FE003E032B2B0D05F5E0E0E0E0E0E0E015
:101F1000E0E0E0E0E0E0E0E0E0E0E0E0E0E0E0E0C1
:101F2000E0E0E0E0E0E0E0E0E0E0E0E0E0E0E0E0B1
:101F3000E0E0E0E00F28501403F7FC00FF00FF0092
:101F40001F800F800F800F800F800F800F800F8009
:101F50000F800F800FC00FC007E007E003F801FEFD
:101F6000007E00FE03FC07E007C007C00FC00F8023
:101F70000F800F800F800F800F800F800F800F80E9
:101F80001F80FF80FF00FE00F80015050F150008F8
:101F90000FC0783FFFF87FFFF07FFFE0F01F80FF6A
:101FA00000645BFBEE31000000002A3A0032F7319A
:101FB000001B1B6C2B08170040400001C07000077D
:101FC000E0FC000FE0FE0007F1FC0007F1FC00035D
:101FD000F1F80001FBF00000FBE000007FC000E032
:101FE0007FC0E0FFBFBFE0FFFFFFE0FFFFFFE0FFBC
:101FF000FFFFE0FF3F9FE0C07FC060007BC00000AC
:10200000FBE00001FBF00003F1F80007F1FC000F1A
:10201000F1FC000FE0FE0007E0FC0001C0700000D2
:102020004040002929F6450E0000003C0000000059
:10203000003C00000000003C00000000003C0000EC
:102040000000003C00000000003C00000000003CDC
:1020500000000000003C00000000003C0000000008
:10206000003C00000000003C00000000003C0000BC
:102070000000003C00000000003C00000000003CAC
:1020800000000000003C00000000003C00000000D8
:10209000003C00000000003C000000FFFFFFFFFFCD
:1020A00080FFFFFFFFFF80FFFFFFFFFF80FFFFFFBD
:1020B000FFFF8000003C00000000003C000000002A
:1020C000003C00000000003C00000000003C00005C
:1020D0000000003C00000000003C00000000003C4C
:1020E00000000000003C00000000003C0000000078
:1020F000003C00000000003C00000000003C00002C
:102100000000003C00000000003C00000000003C1B
:1021100000000000003C00000000003C0000000F38
:1021200011221503F707FE07FC07FC07F80FF80F4D
:10213000F00FF01FE01FE01FC03FC03F803F807FD7
:10214000007F007E00FE0011091B17030DFFFF80BA
:10215000FFFF80FFFF80FFFF80FFFF80FFFF80FF0A
:10216000FF80FFFF80FFFF80090912150700FF8035
:10217000FF80FF80FF80FF80FF80FF80FF80FF8067
:102180001736A21D03FC0000FE0000FE0000FC004C
:1021900001FC0001FC0001F80003F80003F8000353
:1021A000F80007F00007F00007F00007E0000FE07C
:1021B000000FE0000FC0001FC0001FC0001FC000C4
:1021C0003F80003F80003F80003F00007F00007F95
:1021D00000007E0000FE0000FE0000FE0001FC008A
:1021E00001FC0001FC0001F80003F80003F8000303
:1021F000F00007F00007F00007F0000FE0000FE02C
:10220000000FE0000FC0001FC0001FC0001F8000B3
:102210003F80003F80003F00007F00007F00007F84
:1022200000007E0000FE00002233FF2702FF0007AF
:10223000F80000003FFF000000FFFFC00001FFFFAB
:10224000E00003FFFFF00007FFFFF8000FFFFFFCB7
:10225000000FFE1FFC001FF807FE001FF003FE002A
:102260003FF003FF003FE001FF003FE001FF007F80
:10227000E001FF807FC000FF807FC000FF807FC043
:1022800000FF80FFC000FF80FFC000FFC0FFC00054
:10229000FFC0FFC000FFC0FFC000FFC0FFC000FFC5
:1022A000C0FFC000FFC0FFC000FFC0FFC000FFC0F4
:1022B000FFC000FFC0FFC000FFC0FFC000FFC0FFA5
:1022C000C000FFC0FFC000FFC0FFC000FFC0FFC0D4
:1022D00000FFC0FFC000FF807FC000FF807FC00004
:1022E000FF807FC000FF807FE001FF803FE001FFB3
:1022F000003FE001FF003FF003FF001FF003FE007E
:102300001FF807FE000FFE1FFC000FFFFFFC000779
:10231000FFFFF80003FFFFF00001FFFFE00000FFF8
:10232000FFC000003FFF00000007F80000143193D9
:10233000270700001FF0003FF0007FF001FFF003CF
:10234000FFF00FFFF03FFFF0FFFFF0FFFFF0FFFF98
:10235000F0FFDFF0FF9FF0FE1FF0F81FF0E01FF02E
:10236000801FF0001FF0001FF0001FF0001FF000A2
:102370001FF0001FF0001FF0001FF0001FF0001FF3
:10238000F0001FF0001FF0001FF0001FF0001FF012
:10239000001FF0001FF0001FF0001FF0001FF000F2
:1023A0001FF0001FF0001FF0001FF0001FF0001FC3
:1023B000F0001FF0001FF0001FF0001FF0001FF0E2
:1023C000001FF0001FF02232FA2702000003FE0077
:1023D00000001FFFC000007FFFF00000FFFFF800BB
:1023E00003FFFFFE0007FFFFFE0007FFFFFF000FD8
:1023F000FFFFFF801FFF07FF801FFC01FFC01FF8CA
:1024000000FFC03FF800FFC03FF0007FC03FF0007A
:102410007FC03FF0007FC00000007FC00000007F51
:10242000C0000000FFC0000000FF80000001FF802E
:10243000000001FF80000003FF00000007FF000014
:10244000000FFE0000001FFE0000003FFC00000027
:102450007FF8000000FFF0000001FFE0000003FF34
:10246000C0000007FF8000000FFF0000001FFE00FB
:1024700000003FFC000000FFF8000001FFE000004A
:1024800003FFC0000007FF8000001FFE0000003FA8
:10249000FC0000007FF8000000FFE0000000FFFFEC
:1024A000FFFFC0FFFFFFFFC0FFFFFFFFC0FFFFFFF9
:1024B000FFC0FFFFFFFFC0FFFFFFFFC0FFFFFFFFE9
:1024C000C0FFFFFFFFC02033CC2703FF001FF80031
:1024D00000FFFF0003FFFF8007FFFFE00FFFFFF09B
:1024E0001FFFFFF83FFFFFF87FFFFFFC7FF81FFC97
:1024F0007FE00FFEFFC007FEFFC003FEFF8003FE6C
:10250000FF8003FE000003FE000003FE000003FE48
:10251000000007FE00000FFC00007FFC003FFFF8FA
:10252000003FFFE0003FFFC0003FFE00003FFF0014
:10253000003FFFC0003FFFF0003FFFF800003FFCFE
:10254000000007FE000003FE000003FF000001FF83
:10255000000001FF000001FF000001FFFF8001FFFC
:10256000FF8001FFFF8001FFFFC003FFFFC003FEEC
:102570007FE007FE7FE00FFE7FF81FFC3FFFFFF8C4
:102580003FFFFFF01FFFFFF00FFFFFC003FFFF80C3
:1025900001FFFE00001FF0002432FA2702000000B5
:1025A0003FFC0000007FFC0000007FFC000000FFFB
:1025B000FC000000FFFC000001FFFC000003FFFC2A
:1025C000000003FFFC000007FFFC000007FFFC0009
:1025D000000FF7FC00001FF7FC00001FE7FC0000E5
:1025E0003FC7FC00007FC7FC00007F87FC0000FFA6
:1025F00087FC0000FF07FC0001FF07FC0003FE074B
:10260000FC0003FC07FC0007FC07FC0007F807FCC4
:10261000000FF807FC001FF007FC001FF007FC008C
:102620003FE007FC003FC007FC007FC007FC00FF45
:102630008007FC00FF8007FC00FFFFFFFFF0FFFFAB
:10264000FFFFF0FFFFFFFFF0FFFFFFFFF0FFFFFFC7
:10265000FFF0FFFFFFFFF0FFFFFFFFF0FFFFFFFFB7
:10266000F0000007FC00000007FC00000007FC0071
:10267000000007FC00000007FC00000007FC000051
:102680000007FC00000007FC00000007FC00000041
:1026900007FC00000007FC002132FA2703FF7FFF40
:1026A000FFFE007FFFFFFE007FFFFFFE007FFFFFBA
:1026B000FE007FFFFFFE007FFFFFFE007FFFFFFEAB
:1026C000007FFFFFFE007FC00000007FC000000011
:1026D0007FC00000007FC00000007FC00000007FBE
:1026E000C00000007FC00000007FC00000007FC06D
:1026F0000000007FC1FF00007FC7FFC0007FDFFF39
:10270000F0007FFFFFF8007FFFFFFC007FFFFFFE70
:10271000007FFFFFFE007FFC0FFF007FF003FF0044
:102720007FE003FF007FC001FF807FC001FF8000CA
:102730000000FF80000000FF80000000FF8000001C
:1027400000FF80000000FF80000000FF800000000C
:10275000FF80000000FF80FF8001FF80FF8001FFFD
:1027600000FFC003FF00FFC003FE007FE00FFE007C
:102770007FF83FFC007FFFFFFC003FFFFFF8001FDA
:10278000FFFFF0000FFFFFE00007FFFF800001FFE9
:10279000FE0000003FF000002233FF2702FF00038D
:1027A000FC0000001FFF8000007FFFE00000FFFF33
:1027B000F00001FFFFF80003FFFFFC0007FFFFFE32
:1027C0000007FFFFFE000FFF07FF001FFC03FF00D5
:1027D0001FF801FF801FF800FF803FF000FF803FDF
:1027E000E00000003FE00000007FE00000007FC04C
:1027F0000000007FC00000007FC07F00007FC3FF9B
:10280000E000FFC7FFF000FFCFFFF800FFDFFFFC95
:1028100000FFBFFFFE00FFFFFFFF00FFFE0FFF00F6
:10282000FFF803FF80FFF803FF80FFF001FF80FF48
:10283000F001FFC0FFE000FFC0FFE000FFC0FFE0CD
:1028400000FFC0FFE000FFC0FFE000FFC07FE0002E
:10285000FFC07FE000FFC07FE000FFC07FE000FF1F
:10286000803FF001FF803FF001FF803FF803FF0051
:102870001FF803FF001FFE0FFE000FFFFFFE000703
:10288000FFFFFC0003FFFFF80001FFFFF00000FF67
:10289000FFC000003FFF00000007F800002131F5F5
:1028A000270300FFFFFFFF80FFFFFFFF80FFFFFF09
:1028B000FF80FFFFFFFF80FFFFFFFF80FFFFFFFFA5
:1028C00080FFFFFFFF80FFFFFFFF80000000FF8011
:1028D000000001FF80000001FF80000003FF0000F6
:1028E0000003FF00000007FE00000007FE000000DC
:1028F0000FFE0000000FFC0000001FFC0000001F86
:10290000F80000001FF80000003FF00000003FF05A
:102910000000007FF00000007FE0000000FFE0000A
:102920000000FFC0000001FFC0000001FFC0000068
:1029300003FF80000003FF80000003FF000000078A
:10294000FF00000007FE0000000FFE0000000FFE69
:102950000000001FFC0000001FFC0000003FF8000A
:1029600000003FF80000003FF80000007FF000008A
:10297000007FF0000000FFE0000000FFE000000129
:10298000FFC0000001FFC0000003FFC0000003FF04
:1029900080000007FF8000002233FF2702FF000FA6
:1029A000FC000000FFFFC00003FFFFF00007FFFF77
:1029B000F8000FFFFFFC001FFFFFFE003FFFFFFFBF
:1029C000003FFFFFFF003FFC0FFF007FF807FF8085
:1029D0007FF003FF807FE001FF807FE001FF807FC9
:1029E000E001FF807FE001FF807FE001FF807FE06A
:1029F00001FF803FF003FF003FF807FF001FFC0FBF
:102A0000FE000FFFFFFC0007FFFFF00001FFFFC00B
:102A100000003FFF000000FFFF800003FFFFE00019
:102A200007FFFFF8001FFFFFFC003FFC0FFE003F09
:102A3000F807FF007FF003FF007FE001FF807FE0E9
:102A400001FF80FFC000FFC0FFC000FFC0FFC0004B
:102A5000FFC0FFC000FFC0FFC000FFC0FFC000FFFD
:102A6000C0FFE001FFC0FFE001FFC0FFF003FFC0B7
:102A70007FF007FF807FFC0FFF803FFFFFFF003FDD
:102A8000FFFFFF001FFFFFFE000FFFFFFC0003FF23
:102A9000FFF00000FFFFC000000FFC00002233FF2A
:102AA0002702FF0007F80000003FFF000000FFFFC3
:102AB000C00003FFFFE00007FFFFF0000FFFFFF87B
:102AC000001FFFFFFC001FFFFFFE003FF81FFE007E
:102AD0003FF007FF007FE007FF007FC003FF007F9C
:102AE000C003FF80FFC001FF80FF8001FF80FF80E7
:102AF00001FF80FF8001FFC0FF8001FFC0FF800158
:102B0000FFC0FFC001FFC0FFC003FFC0FFC003FF45
:102B1000C07FE007FFC07FF007FFC07FF81FFFC046
:102B20003FFFFFFFC01FFFFF7FC01FFFFEFFC00F63
:102B3000FFFCFFC003FFFCFFC001FFF0FFC0007FF0
:102B4000C0FF80000000FF80000000FF8000000147
:102B5000FF80000001FF80000001FF00000001FF76
:102B6000007FC003FF007FC003FE007FE007FE0080
:102B70003FE00FFE003FF00FFC001FF83FFC001F7E
:102B8000FFFFF8000FFFFFF00007FFFFE00003FF6B
:102B9000FFC00001FFFF8000007FFE0000000FF07B
:102BA0000000092244150900FF80FF80FF80FF809C
:102BB000FF80FF80FF80FF80FF800000000000009A
:102BC0000000000000000000000000000000000005
:102BD00000000000000000000000FF80FF80FF8078
:102BE000FF80FF80FF80FF80FF80FF8000101000CB
:102BF000FE0A06A7089500FFFE0EFE0BFE10102031
:102C00001000FEAAAA00018000000180004A51EADB
:102C1000505A51C99E0001800000018000000180CF
:102C20000055551010201000FEAAAA0001800000D7
:102C30000180003993C252325F8A52719380000042
:102C40000180000001800055551010201000FEAAE0
:102C5000AA00018000000180003BA5C12431198930
:102C6000247125800000018000000180005555106E
:102C700010201000FEAAAA00018000000180007B45
:102C8000A5C1247919C124792580000001800000A4
:102C900001800055551010201000FEAAAA000180E6
:102CA000000001800079BFC2487A49C24879898012
:102CB0000000018000000180005555101020100018
:102CC000FEAAAA00018000000180007A4DC2527B5A
:102CD00053C2D67A4F800000018000000180005569
:102CE000551010201000FEAAAA00018000000180EB
:102CF0000031A5CA287A31CA2849A5800000018080
:102D0000000001800055551010201000FEAAAA00F6
:102D10000180000001800073D1CA1073D1CA107302
:102D2000DF80000001800000018000555510102058
:102D30001000FEAAAA00018000000180001E399147
:102D4000401E3191081E718000000180000001804A
:102D50000055551010201000FEAAAA0001800000A6
:102D600001800022F9A2203E21A220222180000021
:102D70000180000001800055551010201000FEAAAF
:102D8000AA000180000001800020F9A08020F9A0A5
:102D9000803E8180000001800000018000555510B8
:102DA00010201000FEAAAA0001800000018000226D
:102DB000F9A2202221942008218000000180000037
:102DC00001800055551010201000FEAAAA000180B5
:102DD00000000180003EF9A0803EF9A080208180A3
:102DE00000000180000001800055551010201000E7
:102DF000FEAAAA00018000000180001EF1A0882028
:102E0000F1A0901E89800000018000000180005523
:102E1000551010201000FEAAAA00018000000180B9
:102E2000001E71A0881C8982883C7180000001808E
:102E3000000001800055551010201000FEAAAA00C5
:102E4000018000000180001EF9A0201C2182203C8E
:102E5000F98000000180000001800055551010200D
:102E60001000FEAAAA0001800000018000391DA503
:102E700010251DA51039DD800000018000000180B3
:102E80000055551010201000FEAAAA000180000075
:102E90000180007189CA184A09CA08719D80000022
:102EA0000180000001800055551010201000FEAA7E
:102EB000AA00018000000180007199CA044A09CA71
:102EC00010719D80000001800000018000555510A8
:102ED00010201000FEAAAA000180000001800071ED
:102EE00099CA044A19CA047199800000018000003F
:102EF00001800055551010201000FEAAAA00018084
:102F000000000180007185CA0C4A15CA1C718580B9
:102F100000000180000001800055551010201000B5
:102F2000FEAAAA00018000000180004993EA546AC9
:102F300059DBD44A53800000018000000180005515
:102F4000551010201000FEAAAA0001800000018088
:102F5000003453C29A311789127113800000018026
:102F6000000001800055551010201000FEAAAA0094
:102F7000018000000180007BB9C1247939C1247926
:102F8000398000000180000001800055551010209C
:102F90001000FEAAAA00018000000180003325C4B1
:102FA000B447ADC4A434A5800000018000000180B6
:102FB0000055551010201000FEAAAA000180000044
:102FC0000180003E89A0D83EA9A0883E89800000EB
:102FD0000180000001800055551010201000FEAA4D
:102FE000AA00018000000180003A5DC252325D8A71
:102FF00052719D8000000180000001800055551035
:1030000010201000FEAAAA000180000001800079B3
:10301000CFC2107991C0507B8F80000001800000EA
:1030200001800055551010201000FEAAAA00018052
:1030300000000180001E7190801E61901010E180E0
:103040000000018000000180005555101020100084
:10305000FEAAAA00018000000180000E7190801677
:103060006192100EE1800000018000000180005597
:10307000551010201000FEAAAA0001800000018057
:10308000001C7192801C61941012E180000001808C
:10309000000001800055551010201000FEAAAA0063
:1030A0000180000001800012719280126192100C68
:1030B000E180000001800000018000555500000003
:1030C00008000E010A0A0804008080808080808049
:1030D00000808005040408020888888888060A0A97
:1030E000080100242424FC4848FC909090070A0A18
:1030F000080100107C9290701C12927C10070A0A42
:103100000801006294946810102C52528C070A0A2D
:103110000801003844442830528A848C7201040427
:1031200008040880808080030C0C0803FF204040C6
:10313000808080808080404020030C0C0802FF804B
:103140004040202020202020404080070707080121
:10315000011092543854921007070708010110100B
:1031600010FE1010100204040803FEC0404080044A
:103170000101080204F0020202080300C0C0060AAE
:103180000A08010004040810102020408080060A6C
:103190000A08010030488484848484844830050A05
:1031A0000A0802002060A0202020202020F8060A23
:1031B0000A080100788484041820408080FC060AF4
:1031C0000A08010078848404380404848478060A98
:1031D0000A080100081828488888FC080808060A18
:1031E0000A080100FC808080F80404048478060A40
:1031F0000A08010038408080F88484848478060AB4
:103200000A080100FC040408080810101010060A3F
:103210000A08010078848484788484848478060A87
:103220000A080100788484847C040404087002077E
:1032300007080301C0C0000000C0C002090908035C
:10324000FFC0C0000000C04040800509090802001E
:10325000081020408040201008060505080102FCE7
:10326000000000FC0509090801008040201008103A
:10327000204080060A0A080100788484040810109F
:10328000001010060A0A080100384494ACA4A4A453
:103290009C403C060A0A0801003048488484FC84AB
:1032A000848484060A0A080100F8848484F88484EB
:1032B0008484F8060A0A080100788484808080806B
:1032C000848478060A0A080100F08884848484844F
:1032D0008488F0060A0A080100FC808080F880805B
:1032E0008080FC060A0A080100FC808080F880804B
:1032F000808080060A0A08010078848480809C848B
:10330000848C74060A0A08010084848484FC848402
:10331000848484050A0A080200F820202020202046
:103320002020F8070A0A0801003E080808080808D3
:10333000888870060A0A080100848890A0C0C0A08E
:10334000908884060A0A080100808080808080803E
:103350008080FC060A0A0801008484CCCCB4B484C2
:10336000848484060A0A08010084C4C4A4A4949432
:103370008C8C84060A0A08010078848484848484FE
:10338000848478060A0A080100F8848484F880801E
:10339000808080070B0B0801FF78848484848484F8
:1033A000B4CC7806060A0A080100F8848484F890F0
:1033B00088888484060A0A0801007884848060185A
:1033C00004848478070A0A080100FE101010101007
:1033D00010101010060A0A08010084848484848472
:1033E00084848478070A0A08010082828244444463
:1033F00028281010060A0A08010084848484B4B4C2
:10340000CCCC8484060A0A08010084844848303001
:1034100048488484070A0A0801008282444428102C
:1034200010101010060A0A080100FC0404081020FD
:10343000408080FC030C0C0804FFE08080808080CA
:103440008080808080E0060A0A0801008080402099
:10345000201010080404030C0C0801FFE0202020B9
:1034600020202020202020E0060303080109304806
:10347000840701010801FFFE03030308020A8040DC
:10348000200608080801007884047C84848C740673
:103490000B0B080100808080B8C484848484C4B885
:1034A0000608080801007884808080808478060BF4
:1034B0000B080100040404748C848484848C7406D6
:1034C0000808080100788484FC80808478050B0B50
:1034D00008010018202020F8202020202020060BA2
:1034E0000B0801FE0474888888704078848478060C
:1034F0000B0B080100808080B8C484848484848499
:10350000050B0B0802002020006020202020202036
:10351000F8050D0D0801FE0808001808080808083D
:1035200008089060060B0B0801008080808890A03E
:10353000C0A0908884050B0B08020060202020208A
:103540002020202020F8070808080100EC92929221
:1035500092929292060808080100B8C48484848478
:10356000848406080808010078848484848484782C
:10357000060A0A0801FEB8C484848484C4B8808022
:10358000060A0A0801FE748C848484848C74040402
:10359000060808080100B8C484808080808006087E
:1035A000080801007884806018048478050A0A08F5
:1035B0000100202020F820202020201806080808DC
:1035C00001008484848484848C74060808080100C3
:1035D00084848448484830300708080801008292F3
:1035E00092929292926C06080808010084844830F6
:1035F00030488484060A0A0801FE84848484844C4A
:1036000034040478060808080100FC04081020406F
:1036100080FC030C0C0803FF6080804040808040E9
:1036200040808060010E0E0804FE808080808080D3
:103630008080808080808080030C0C0802FFC02086
:10364000204040202040402020C0070303080108FC
:1036500062928C1010201000FEAAAA0001800000C7
:1036600001800073D1CA104BD1CA1073DF800000F3
:103670000180000001800055551010201000FEAAA6
:10368000AA0001800000018000719DCA5273D3C25C
:1036900052425D80000001800000018000555510FD
:1036A00010201000FEAAAA0001800000018000493D
:1036B0009DCA527A5DCA5049918000000180000085
:1036C00001800055551010201000FEAAAA000180AC
:1036D00000000180007393CA52739FCA1272138054
:1036E00000000180000001800055551010201000DE
:1036F000FEAAAA00018000000180004B93EA525B01
:103700009FCA524B93800000018000000180005549
:10371000551010201000FEAAAA00018000000180B0
:103720000074B9A6A425A5A4A474B98000000180E2
:10373000000001800055551010201000FEAAAA00BC
:10374000018000000180004BD1EA105BD1CA104B10
:10375000DF8000000180000001800055551010201E
:103760001000FEAAAA000180000001800039CDC22D
:1037700012319F8852739380000001800000018005
:103780000055551010201000FEAAAA00018000006C
:1037900001800079CDC212799FC0527B93800000D6
:1037A0000180000001800055551010201000FEAA75
:1037B000AA00018000000180004B9DC9207919C931
:1037C0000449398000000180000001800055551037
:1037D00010201000FEAAAA00018000000180002530
:1037E000DDA4843C85A4842499800000018000002D
:1037F00001800055551010201000FEAAAA0001807B
:10380000000001800045CDC4904489A884109980AF
:1038100000000180000001800055551010201000AC
:10382000FEAAAA0001800000018000721DCA127267
:1038300013C21243DD8000000180000001800055AA
:10384000551010201000FEAAAA000180000001807F
:10385000007213CA127213C21243CD80000001809D
:10386000000001800055551010201000FEAAAA008B
:10387000018000000180000E2189200E218A20098C
:1038800021800000018000000180005555101020AB
:103890001000FEAAAA000180000001800039DDC2EC
:1038A00002318D8850739F800000018000000180EC
:1038B0000055551010201000FEAAAA00018000003B
:1038C00001800039DDC202318D8842739D80000085
:1038D0000180000001800055551010201000FEAA44
:1038E000AA000180000001800071CFCA104A0DCAF1
:1038F0000271DD800000018000000180005555103C
:1039000010201000FEAAAA000180000001800072B1
:1039100045CA4C7245C244418F80000001800000BE
:1039200001800055551010201000FEAAAA00018049
:103930000000018000725DCA42724DC250419F80FA
:10394000000001800000018000555510102010007B
:10395000FEAAAA00018000000180003B9DC1203129
:103960001989047139800000018000000180005530
:10397000551010201000FEAAAA000180000001804E
:103980000039D3C212421FC21239D3800000018015
:10399000000001800055551010201000FEAAAA005A
:1039A000018000000180002289B6882AA9A2D822BD
:1039B0008980000001800000018000555510102012
:1039C0001000FEAAAA00018000000180003B8DC209
:1039D00052339F8A12721380000001800000018020
:1039E0000055551010201000FEAAAA00018000000A
:1039F0000180007B8DC2527B9FC2127A138000002F
:103A00000180000001800055551010201000FEAA12
:103A1000AA0001800000018000398FC250324D8A17
:103A200042719D800000018000000180005555100A
:103A300010201000FEAAAA000180000001800033BF
:103A40009BC42225A394A2639B80000001800000F8
:103A500001800055551010201000FEAAAA00018018
:103A6000000001800039DDC20832098A0871DD805A
:103A7000000001800000018000555510102010004A
:103A8000FEAAAA000180000001800039DDC20841C1
:103A900089C0483B9D8000000180000001800055E6
:103AA000551010201000FEAAAA000180000001801D
:103AB000000EF990200C2182201C21800000018042
:103AC000000001800055551010201000FEAAAA0029
:103AD0000180000001800031CFCA104991C85033E5
:103AE0008F800000018000000180005555101020DB
:103AF0001000FEAAAA00018000000180001C89922B
:103B0000D81CA990881089800000018000000180E5
:103B10000055551010201000FEAAAA0001800000D8
:103B2000018000338FCA507B91CA104A0F80000079
:103B300001800000018000555500000008000E01C2
:103B40000A0A0804008080008080808080808007CE
:103B50000A0A08010010107C929090927C101007C5
:103B60000A0A0801001C202020F82020207CC20620
:103B700008080801018448784848784884070A0AF8
:103B800008010082442810FE10FE101010010A0ADD
:103B900008040080808080000080808080060A0AFF
:103BA0000801007884807884847804847804020290
:103BB00008020C9090080A0A0800003C4299A5A14E
:103BC000A1A599423C050707080205700878887886
:103BD00000F80609090801002424484890484824B0
:103BE00024060404080100FC040404101020100042
:103BF000FEAAAA000180003A63C25433C98A4872FF
:103C00004980000001800003C18000000180005550
:103C100055080A0A0800003C42B9A5A5B9A9A54261
:103C20003C06010108010BFC03040408020A40A041
:103C3000A040070909080101101010FE1010100023
:103C4000FE050707080205708808708080F80507E0
:103C500007080205708808700888700303030803CA
:103C60000A204080080A0A0800FE424242424242BC
:103C700066594080060C0C0801FF7CF4F4F4F474DF
:103C800014141414141C020202080304C0C003021A
:103C9000020802FE20C00307070802052060A020DA
:103CA000202020050707080205708888887000F822
:103CB0000609090801009090484824484890900659
:103CC0000A0A08010044C4485050242C549C84061D
:103CD0000A0A08010044C4485050283444889C060D
:103CE0000A0A080100C4244830D0242C549C8406BD
:103CF0000A0A0801001010001010608484847806FD
:103D00000E0E080100601800003048488484FC84CE
:103D1000848484060E0E08010018600000304848B4
:103D20008484FC84848484060E0E080100304800DC
:103D3000003048488484FC84848484060E0E080184
:103D400000649800003048488484FC84848484069D
:103D50000E0E080100484800003048488484FC8466
:103D6000848484060E0E0801003048300030484834
:103D70008484FC84848484070A0A0801003E5090ED
:103D800090FE909090909E060C0C0801FE78848422
:103D9000808080808484781060060E0E08010060A8
:103DA000180000FC808080F880808080FC060E0E69
:103DB00008010018600000FC808080F8808080800E
:103DC000FC060E0E08010030480000FC808080F8E0
:103DD00080808080FC060E0E08010048480000FC30
:103DE000808080F880808080FC050E0E08020060D4
:103DF000180000F82020202020202020F8050E0E9A
:103E000008020030C00000F82020202020202020C0
:103E1000F8050E0E08020060900000F82020202017
:103E200020202020F8050E0E08020090900000F8D7
:103E30002020202020202020F8070A0A08000078EF
:103E4000444242F24242424478060E0E08010064A7
:103E500098000084C4C4A4A494948C8C84060E0E90
:103E60000801006018000078848484848484848439
:103E700078060E0E0801001860000078848484849F
:103E80008484848478060E0E08010030480000788F
:103E9000848484848484848478060E0E08010064FB
:103EA00098000078848484848484848478060E0E48
:103EB00008010048480000788484848484848484D1
:103EC000780605050801028448304884060C0C0871
:103ED00001FF0474888C9494A4A4C444B880060E92
:103EE0000E08010060180000848484848484848423
:103EF0008478060E0E080100186000008484848413
:103F0000848484848478060E0E0801003048000002
:103F100084848484848484848478060E0E0801005A
:103F20004848000084848484848484848478070ED0
:103F30000E0801001860000082824444281010100E
:103F40001010060B0B0801008080F088848488F034
:103F5000808080060A0A08010070888890B08884F2
:103F600084A498060C0C08010060180000788404F2
:103F70007C84848C74060C0C0801001860000078A6
:103F800084047C84848C74060C0C08010030480086
:103F9000007884047C84848C74060C0C0801006412
:103FA0009800007884047C84848C74060C0C0801CE
:103FB00000484800007884047C84848C74060D0DCD
:103FC00008010030483000007884047C84848C74BC
:103FD0000708080801007C92127E9090927C060AE5
:103FE0000A0801FE78848080808084781060060C46
:103FF0000C08010060180000788484FC80808478BC
:10400000060C0C08010018600000788484FC808095
:104010008478060C0C08010030480000788484FC89
:1040200080808478060C0C080100484800007884E1
:1040300084FC80808478050C0C080200C0300000ED
:1040400060202020202020F8050C0C08020030C041
:10405000000060202020202020F8050C0C08020021
:104060006090000060202020202020F8050C0C0823
:1040700002009090000060202020202020F8060CF4
:104080000C08010064182844047C848484848478A7
:10409000060C0C08010064980000B8C48484848471
:1040A0008484060C0C080100601800007884848465
:1040B00084848478060C0C08010018600000788461
:1040C000848484848478060C0C0801003048000045
:1040D0007884848484848478060C0C0801006498B5
:1040E00000007884848484848478060C0C080100A1
:1040F000484800007884848484848478060707080C
:104100000101300000FC000030060A0A0801FF042B
:10411000788C9494A4A4C47880060C0C08010060E8
:104120001800008484848484848C74060C0C080138
:1041300000186000008484848484848C74060C0CD1
:10414000080100304800008484848484848C7406D0
:104150000C0C080100484800008484848484848C0A
:1041600074060E0E0801FE186000008484848484A6
:104170004C34040478050C0C0802FE8080F088881A
:104180008890A0C0808080060E0E0801FE4848007E
:104190000084848484844C340404780011241FBE79
:1041A000CFEFDAE0DEBFCDBF11E0A0E0B1E0E6E3A3
:1041B000F4E602C005900D92A033B107D9F722E0D2
:1041C000A0E3B1E001C01D92AF33B207E1F70E9456
:1041D00024240C9419320C940000EAE7F0E087E004
:1041E0008083808180688083089580937C008091A3
:1041F0007C00806C80937C0080917A008064809346
:104200007A0080917A0086FDFCCF809178009091B1
:1042100079000895809146010E94F5209093450110
:1042200080934401BC0180E090E00E94822C2AE04F
:1042300037ED43E250E40E94392D20E030EC4FE7A7
:1042400054E40E94E12B60934001709341018093FC
:104250004201909343010895809102010E94F5204C
:1042600090933D0180933C01BC0180E090E00E946E
:10427000822C2AE037ED43E250E40E94392D20E001
:1042800030EC4FE754E40E94E12B2AEA32E849E19E
:1042900050E40E94392D609334017093350180936E
:1042A00036019093370108958F929F92AF92BF92FB
:1042B000CF92DF92EF92FF920E940A21C0904001BC
:1042C000D0904101E0904201F090430120E030E0C5
:1042D00040ED5FE3C701B6010E94392D21E536E6C6
:1042E00043E350E40E94702B20E030E74CE356E4B7
:1042F0000E94392D4B015C012FE832EC4DE350E474
:10430000C701B6010E94392D9B01AC016DEB7CE821
:1043100086E091E40E946F2B9B01AC01C501B401C2
:104320000E94E12B609338017093390180933A0128
:1043300090933B0120E030E04AE754E40E94E12BF7
:104340002BE63BE246E35FEB0E94A62D2DEC3CE41E
:1043500045EE53E40E94392D28EF33E543E950E45C
:104360000E94702B0E94532C6336710528F47093C1
:104370003F0160933E0106C083E690E090933F01C9
:1043800080933E0180913E0190913F01459730F42A
:1043900081E090E09093010180930001FF90EF9005
:1043A000DF90CF90BF90AF909F908F900895CF9265
:1043B000DF92EF92FF9260913E0170913F0180E0A9
:1043C00090E00E94822C6B017C0120E030E040EF05
:1043D00050E40E94342D87FD0AC020E030E048E41C
:1043E00051E4C701B6010E94DC2B87FDECC020E040
:1043F00030E048E451E4C701B6010E94342D87FD46
:104400000AC020E030E04CE851E4C701B6010E9448
:10441000DC2B87FDDBC020E030E04CE851E4C70135
:10442000B6010E94342D87FD0AC020E030E044EB45
:1044300051E4C701B6010E94DC2B87FDCAC020E011
:1044400030E044EB51E4C701B6010E94342D87FDF2
:104450000AC020E030E04CED51E4C701B6010E94F3
:10446000DC2B87FDB9C020E030E04CED51E4C70102
:10447000B6010E94342D87FD0AC020E030E042E002
:1044800052E4C701B6010E94DC2B87FDA8C020E0E2
:1044900030E042E052E4C701B6010E94342D87FDAE
:1044A0000AC020E030E046E152E4C701B6010E94B4
:1044B000DC2B87FD97C020E030E046E152E4C701E5
:1044C000B6010E94342D87FD0AC020E030E04AE2A8
:1044D00052E4C701B6010E94DC2B87FD86C020E0B4
:1044E00030E04AE252E4C701B6010E94342D87FD54
:1044F0000AC020E030E04EE352E4C701B6010E945A
:10450000DC2B87FD75C020E030E04EE352E4C701AC
:10451000B6010E94342D87FD0AC020E030E042E55C
:1045200052E4C701B6010E94DC2B87FD64C020E085
:1045300030E042E552E4C701B6010E94342D87FD08
:104540000AC020E030E046E652E4C701B6010E940E
:10455000DC2B87FD53C020E030E046E652E4C70183
:10456000B6010E94342D87FD0AC020E030E04AE702
:1045700052E4C701B6010E94DC2B87FD42C020E057
:1045800030E04AE752E4C701B6010E94342D87FDAE
:104590000DC020E030E047E852E4C701B6010E94B8
:1045A000DC2B87FF31C081E490E030C020E030E0B8
:1045B0004AE752E4C701B6010E94342D87FF24C0A8
:1045C00080E090E023C08AE090E020C08FE090E09F
:1045D0001DC084E190E01AC089E190E017C08EE12F
:1045E00090E014C083E290E011C088E290E00EC039
:1045F0008DE290E00BC082E390E008C087E390E09A
:1046000005C08CE390E002C083E690E0FF90EF905D
:10461000DF90CF9008955A9A5B9A5C9A0895CF9252
:10462000EF920F93CF93DF931F92CDB7DEB7529ADD
:10463000539A549A559A579A569A0E940B230E945D
:1046400043240E94522466E083E00E94F225C82E93
:1046500067E083E00E94F225E82E65E083E00E9497
:10466000F225082F62E081E00E94F225282F61E008
:1046700081E029830E94F225482F298164E071E0BE
:104680008CED91E00E94002A61E08CED91E00E94A7
:10469000552A64E68CED91E00F90DF91CF910F9158
:1046A000EF90CF900C943E2A5A985B985C980895AE
:1046B0008091320190913301019771F46CEE7BE2AD
:1046C0008CED91E00E94D62822E131E049E160E0E2
:1046D0008CED91E00E9450288091000190910101A1
:1046E000019759F46AE971E08CED91E00E94D628B7
:1046F0002EE131E048E365E018C060EA7FE18CED2F
:1047000091E00E94D62822ED31E048E360E08CED94
:1047100091E00E9450286CEE7BE28CED91E00E94CB
:10472000D62823E231E04EE36AE58CED91E00C946B
:104730005028CF92DF92EF92FF920E9454210E9464
:104740002C218091130290911402019791F0C09056
:104750003401D0903501E0903601F09037012FE11F
:1047600035E84BE850E4C701B6010E94DC2B87FF17
:1047700009C082E090E090933301809332010E945F
:10478000542315C02CEE31E548E950E4C701B601C9
:104790000E94DC2B87FF07C081E090E090933301FB
:1047A0008093320104C01092330110923201809143
:1047B00000019091010160913E0170913F010197CC
:1047C00059F480913001909131018617970721F0BB
:1047D000109201011092000180E090E00E94822C72
:1047E00020E030E047E852E40E94342D18163CF4F3
:1047F00068E271E082ED91E00E943A2F14C00E94BD
:10480000D7219F938F938CE291E09F938F9382EDBA
:1048100091E09F938F930E94412F0F900F900F90E4
:104820000F900F900F908CED91E00E942A2A0E9429
:1048300058238CED91E00E942F2A8111F8CFFF9030
:10484000EF90DF90CF90089580E880936100109200
:1048500061000E94ED200E940F230E94542180914C
:104860003E0190913F0190933101809330010E946D
:1048700099232FEF83EC99E0215080409040E1F79D
:1048800000C00000F4CFE1E8F0E080818860808320
:1048900080818460808384E294EF90938900809388
:1048A00088000895EFE6F0E08081826080831092B6
:1048B000200210921F021092140210921302089507
:1048C0001F920F920FB60F9211242F938F939F93E5
:1048D00080911F0290912002019690932002809374
:1048E0001F028538934030F081E090E090931402ED
:1048F000809313029F918F912F910F900FBE0F9075
:104900001F9018950F93FC010150040F84A996A9DC
:10491000941718F0081728F402C0081750F004176D
:1049200040F42150260F83A995A9961720F4281743
:1049300020F480E007C0281720F481E0261710F04B
:10494000F8CF81E00F910895DB011496ED91FC9171
:10495000159720E030E061E00994DB011496ED91B9
:10496000FC91159720E030E063E00994DB01149698
:10497000ED91FC91159720E030E040E064E009946F
:10498000DB011496ED91FC91159720E030E041E0B9
:1049900064E00994DB011496ED91FC91159720E0F9
:1049A00030E062E00994DB011496ED91FC911597DB
:1049B00020E030E065E00994DB011496ED91FC9174
:1049C000159766E00994CF92DF92EF92FF920F93D2
:1049D0001F93CF93DF938C017B016A0180E0F60186
:1049E000C49181110AC0CF3FE9F14C2FB701C80132
:1049F0000E94D32481112FC03AC0CF3F11F44FEF52
:104A0000F5CFCE3FB1F1C03F30F5C03E38F04C2F6E
:104A10004F70B701C8010E94CA241DC0C03D38F0C4
:104A20004C2F4F70B701C8010E94AD2414C0C03C88
:104A3000A0F0B701C8010E94B624C295C07FCE5F26
:104A4000D0E0CE010E944C26B701C8010E94C024CC
:104A5000CE010E944C2680E006C0C7FDFCCF8C2F03
:104A600090E0F7CF81E0FFEFCF1ADF0AB8CF80E008
:104A700001C081E0DF91CF911F910F91FF90EF90E6
:104A8000DF90CF9008950F931F93CF93DF938C0106
:104A9000D62FC8E04D2F407865E0C8010E9442261D
:104AA000DD0F41E064E0C8010E9442260E945626C4
:104AB00040E064E0C8010E9442260E945626C15090
:104AC00049F7DF91CF911F910F910895EF92FF92D7
:104AD0000F931F93CF93DF931F92CDB7DEB77C0167
:104AE0008901862F90E0FC013197E730F10508F04D
:104AF00059C0EA5AFF4F0C942B2F64E0C7010E9463
:104B0000392665E0C7010E94392661E0C7010E948D
:104B1000392662E0C7010E94392660E0C7010E9481
:104B2000392640E064E0C7010E94422640E065E08B
:104B3000C7010E94422641E062E0C7010E9442266E
:104B400040E061E004C0411106C041E062E0C701FD
:104B50000E94422627C040E064E0C7010E9442262E
:104B600040E0F4CF60E0F3CF642FC7010E944325FB
:104B700019C04423B9F0F80161918F01C70149833D
:104B80000E94432549814150F4CF442359F0F80154
:104B90006491C70149830E9443250F5F1F4F4981DC
:104BA0004150F3CF81E00F90DF91CF911F910F9192
:104BB000FF90EF900895CF93DF9300D0CDB7DEB78D
:104BC000860F911D860F911D42E050E0BC01CE0181
:104BD00001960E94312F89819A810F900F90DF9169
:104BE000CF91089598E0899F600D1124862F089534
:104BF000CF93C82F682F66956695669588E491E0F7
:104C00000E94DB25FC014081C77021E030E001C03B
:104C1000220FCA95EAF7242B2083CF910895CF93D2
:104C2000DF93C82FD62F682F6695669566958CE31F
:104C300091E00E94DB25FC01C7708FB7D1110BC03A
:104C4000F894908121E030E001C0220FCA95EAF784
:104C50002095292309C0F894908121E030E001C01B
:104C6000220FCA95EAF7292B20838FBFDF91CF91BE
:104C70000895860F911DFC0183A18F3F11F00C94C4
:104C8000F8250895860F911DFC0183A18F3F19F02F
:104C9000642F0C940F2608952EE93FE0009729F029
:104CA000F9013197F1F70197F9CF089584E090E089
:104CB0000197F1F70895AF92BF92CF92DF92FF92E2
:104CC0000F931F93CF93DF938C01EB01F42E6901B7
:104CD00080E1481709F456C0841710F1EAE04E1736
:104CE00031F1FFE04F1359C041E0C8010E94AD24EB
:104CF00040E0BE01C8010E94CA2441E8BE01C801CB
:104D00000E94D324F601408146954695BE01C80114
:104D10000E94D32440E0BE01C8010E94AD243BC0E4
:104D200081E1481791F1E5E14E1761F036C043E0AB
:104D3000C8010E94A42444E751E0BE01C8010E94BA
:104D4000E3242BC0AA80BB804CE651E0C8010E943E
:104D5000E324F5014481406BBE01C8010E94D324C5
:104D600041E0BE01C8010E94CA24AE01B801C501DC
:104D70000E94BB2A882301F140E0BE01C8010E94C5
:104D8000AD240BC040E651E002C044E551E0BE0155
:104D9000C8010E94E32481E00FC096014F2DBE019F
:104DA000C801DF91CF911F910F91FF90DF90CF90BD
:104DB000BF90AF900C94272BDF91CF911F910F9153
:104DC000FF90DF90CF90BF90AF900895FC01E60F69
:104DD000F11D849190E0982F88273196E4918E0FF1
:104DE000911D0895FC01849108950E94F226882364
:104DF00021F0823011F083E0089586E0089580E08C
:104E0000089566E00C94E62668E00C94E6260A967F
:104E1000FC01849108950B96FC0184910895BF9242
:104E2000CF92DF92EF92FF920F931F93CF93DF9376
:104E30008C01E62EDC011496CD91DC911597CE0104
:104E40000E94F226F82EF801848195810E94F526B1
:104E5000C82EF1E0FF1203C02FE0B22E02C0BB2427
:104E6000BA94D80114968D919C9115970E940727AA
:104E7000F82EF801848195810E940B27D82ED80145
:104E800014968D919C9115970E940427B0E6BE154B
:104E900038F4009729F0C80FD91F91E6F92E10C0F9
:104EA000F801848195810E940127F0E4FE1538F411
:104EB000009729F0C80FD91F81E4F82E01C0619630
:104EC000DE1490F4D80150961C92509753961C9281
:104ED000539754961C92549751961C925197529600
:104EE0001C9280E090E067C0DF1460F38C2D90E0AE
:104EF000FE0124912F3F11F4219658C0FE104DC0A1
:104F0000D80114968D919C9115970E94F2269E01CE
:104F10002F5F3F4FFE01882311F08230E1F484912E
:104F2000D80153968C935397F901249154962C935E
:104F30005497FE013396E4915096EC935097FE01FE
:104F40003496E4915196EC935197FE013596E49195
:104F50005296EC9320C08491982F9F709250D80164
:104F600052969C93529782958F7051968C9351973D
:104F7000F9012491822F8F7054968C935497229527
:104F80002F7053962C935397FE013296E491E2953D
:104F9000EF705096EC93CE010EC0FE013296E49174
:104FA000EB219C012E0F311DC20FD31FFD1409F4FC
:104FB00089CFF3949DCFDF91CF911F910F91FF90F7
:104FC000EF90DF90CF90BF9008954F925F926F92D5
:104FD0007F929F92AF92BF92CF92DF92EF92FF9219
:104FE0000F931F93CF93DF931F92CDB7DEB72C01A2
:104FF000C62E942E622F0E940F277C01892B09F464
:105000003DC0F201848195810E94F526B82EF201FF
:10501000138904898189C80E8289981AD92CD01ADB
:10502000212F4D2D6C2DC2010E948224882319F15D
:10503000EB0CF11C195F169516951695612E712CC7
:10504000D914C9F03C2D57018A2D8E19811778F497
:10505000F501049120E04D2D632FC20139830E9498
:10506000442AFFEFAF1ABF0A3981385FEDCFE60C53
:10507000F71CD394E5CFF201808901C080E00F9046
:10508000DF91CF911F910F91FF90EF90DF90CF9024
:10509000BF90AF909F907F906F905F904F900895DA
:1050A000AF92BF92DF92EF92FF920F931F93CF9335
:1050B000DF9300D0CDB7DEB77C01D62E042FDC0104
:1050C0005596ED91FC91569729833A830995080FDF
:1050D0002981A22E3A81B32E10E0F50121915F01C2
:1050E000222341F0402F6D2DC7010E94E527D80EE5
:1050F000180FF3CF812F0F900F90DF91CF911F9159
:105100000F91FF90EF90DF90BF90AF900895DC017A
:1051100014962D913C9115972115310509F43FC046
:1051200057968C915797F901811108C03596E491F3
:105130005896EC935897F9013C9611C0813041F490
:105140003F96E4915896EC935897F901709607C0F2
:105150003D96E4915896EC935897F9013E96E49168
:105160005996EC93599758968C915897082E000CA5
:10517000990B59962C915997821B910927FD93956C
:105180005A962C915A97203441F0829FC0011124E5
:1051900026E0969587952A95E1F75B968C9308957E
:1051A0002FEF36E2FC01368B258B0895CF93DF93EA
:1051B000FC01248135812617370749F0EC017583FE
:1051C00064830E9487288FEF96E29E8B8D8BDF9100
:1051D000CF9108951F93CF93DF93EC011D821C8222
:1051E0001F821E82198681E0888782E28A871F8655
:1051F0001E86FE01B396CE01C1962FEF2193E817CC
:10520000F907E1F711E018A3CE010E94D0281F8B07
:10521000188E198E80E48A8F1B8E8EE69BE29AABE5
:1052200089ABDF91CF911F910895DB01ED91FC9146
:105230000994EF92FF921F93CF93DF9300D0CDB7E5
:10524000DEB77C01DC01D196ED91FC91D29782E032
:1052500069837A83099520E030E04AE069817A81A8
:10526000C7010E941529182FD701D196ED91FC9105
:10527000D29783E00995D701D196ED91FC91D29711
:1052800080E00995812F0F900F90DF91CF911F91B2
:10529000FF90EF9008950F931F93CF93DF93EC014E
:1052A0008B01E9A9FAA982E00995E9A9FAA981E0A7
:1052B000099520E030E044E1B801CE010E941529B3
:1052C0009E012D5C3F4F47E1B801CE010E94152998
:1052D000E9A9FAA980E0DF91CF911F910F9109947C
:1052E000EF92FF921F93CF93DF93EC017B01E9A92B
:1052F000FAA982E00995E9A9FAA981E0099520E0D7
:1053000030E045E1B701CE010E941529182F88230E
:1053100041F09E012D5C3F4F47E1B701CE010E9455
:105320001529E9A9FAA980E00995812FDF91CF918C
:105330001F91FF90EF900895CF93DF931F92CDB709
:10534000DEB749839E012F5F3F4F4FE00E94152932
:105350000F90DF91CF910895CF93DF931F92CDB738
:10536000DEB79E012F5F3F4F46E40E9415298981D9
:105370000F90DF91CF910895CF93DF931F92CDB718
:10538000DEB79E012F5F3F4F47E40E9415298981B8
:105390000F90DF91CF91089520E030E048E40C9425
:1053A0001529CF93DF93EC016A817B810E94AC29A0
:1053B00088836A817B81CE010E94BC2989836A81AE
:1053C0007B81CE010E94CC298B879E012D5C3F4FB3
:1053D0006A817B8147E1CE01DF91CF910C94152941
:1053E000CF93DF93EC016A817B810E941929882386
:1053F00021F0CE010E94D12981E0DF91CF91089563
:105400008F929F92AF92BF92CF92EF920F93CF93D2
:10541000DF9300D0CDB7DEB74C015B012A8349830F
:105420000E94EA28F401B382A282498147A32A811B
:1054300020A705A3E4A2C3A2C4010F900F90DF919F
:10544000CF910F91EF90CF90BF90AF909F908F90A2
:105450000C94F029FC01628173810C944B29CF9349
:10546000DF93EC01EE85FF85309709F009956A819D
:105470007B81CE01DF91CF910C947029462FFC01E6
:10548000628173810C949C290F93FC01828193812A
:10549000648F458F278F068F9F01245E3F4F4BE31C
:1054A000BC01CF010F910C941529FC0160A3089554
:1054B000FC01128280818150838314820895FC0153
:1054C00080819281980F92832181921760F4948158
:1054D0009F5F94839381890F821710F08FEF820F63
:1054E000838381E0089580E00895DC011696ED91B4
:1054F000FC91179715968C919F01280F311DC901BA
:105500001192E817F907E1F70895FC0191E0838112
:10551000861708F490E031E0461708F030E0832F5A
:10552000892B21E05281451708F420E02823832F9E
:105530008923822B0895DC01FB01108212968C9145
:105540001297818315968C911597815082831396BB
:105550008C9183830895FB0141812381213029F0BF
:10556000233031F468EF640F04C0642F485F01C03A
:10557000642F0C94852AFC01CB01BA012681378166
:1055800045810C94DC24DC011696ED91FC91179773
:1055900012968C91481B477081E090E001C0880F03
:1055A0004A95EAF7E60FF11D3081222311F0832B93
:1055B00002C08095832380830895FB014181DC0133
:1055C00012962C911297421768F013962C9113970C
:1055D000241740F0608115962C91621718F42481ED
:1055E0000C94C32A0895CF92DF92FF920F931F93DA
:1055F000CF93DF936C01EB01FA809B81913051F0E6
:1056000030F0923049F0933051F41FEF09C010E0B0
:1056100001E007C011E004C010E00FEF02C010E08D
:1056200000E0F7FE04C0BE01C6010E94DD2A988199
:10563000900F98839981910F9983FF0C91F7DF91D7
:10564000CF911F910F91FF90DF90CF9008950F930E
:105650001F93CF93DF938901FB01C281D381423332
:10566000F9F068F4453109F1473141F1443181F5F0
:10567000CE010E94752ACE010E94582A29C04634C4
:1056800011F1473411F14B3319F5B901CE010E94E4
:10569000AB2A8823E9F0B801CE010E94F32A18C092
:1056A000B901CE010E94DD2A13C0CE010E945F2AFB
:1056B000882379F0CE010E94752A0AC0B901CE0173
:1056C0000E949B2A05C08D8101C08981F8018083D9
:1056D00081E0DF91CF911F910F9108950895505867
:1056E000BB27AA270E94872B0C94FA2C0E94EC2C33
:1056F00038F00E94F32C20F039F49F3F19F426F47F
:105700000C94E92C0EF4E095E7FB0C94E32CE92FC4
:105710000E940B2D58F3BA17620773078407950789
:1057200020F079F4A6F50C942D2D0EF4E0950B2EB7
:10573000BA2FA02D0B01B90190010C01CA01A001E3
:105740001124FF27591B99F0593F50F4503E68F13E
:105750001A16F040A22F232F342F4427585FF3CF7F
:10576000469537952795A795F0405395C9F77EF450
:105770001F16BA0B620B730B840BBAF09150A1F099
:10578000FF0FBB1F661F771F881FC2F70EC0BA0F1F
:10579000621F731F841F48F4879577956795B795A7
:1057A000F7959E3F08F0B0CF9395880F08F09927A2
:1057B000EE0F9795879508950E94BF2C08F481E01D
:1057C00008950E94F52B0C94FA2C0E94F32C58F0AB
:1057D0000E94EC2C40F029F45F3F29F00C94E32C5C
:1057E00051110C942E2D0C94E92C0E940B2D68F372
:1057F0009923B1F3552391F3951B550BBB27AA278A
:1058000062177307840738F09F5F5F4F220F331FC3
:10581000441FAA1FA9F335D00E2E3AF0E0E832D08B
:1058200091505040E695001CCAF72BD0FE2F29D08E
:10583000660F771F881FBB1F261737074807AB0760
:10584000B0E809F0BB0B802DBF01FF2793585F4FD5
:105850003AF09E3F510578F00C94E32C0C942E2DD9
:105860005F3FE4F3983ED4F3869577956795B795B7
:10587000F7959F5FC9F7880F911D9695879597F9C2
:105880000895E1E0660F771F881FBB1F621773073B
:105890008407BA0720F0621B730B840BBA0BEE1F50
:1058A00088F7E09508950E94132D88F09F5798F08F
:1058B000B92F9927B751B0F0E1F0660F771F881F15
:1058C000991F1AF0BA95C9F714C0B13091F00E942F
:1058D0002D2DB1E008950C942D2D672F782F88275A
:1058E000B85F39F0B93FCCF3869577956795B39556
:1058F000D9F73EF490958095709561957F4F8F4FC5
:105900009F4F0895E89409C097FB3EF490958095C9
:10591000709561957F4F8F4F9F4F9923A9F0F92F75
:1059200096E9BB279395F695879577956795B795F3
:10593000F111F8CFFAF4BB0F11F460FF1BC06F5FD9
:105940007F4F8F4F9F4F16C0882311F096E911C0EB
:10595000772321F09EE8872F762F05C0662371F00C
:1059600096E8862F70E060E02AF09A95660F771F20
:10597000881FDAF7880F9695879597F90895990FFC
:105980000008550FAA0BE0E8FEEF16161706E80709
:10599000F907C0F012161306E407F50798F0621B2A
:1059A000730B840B950B39F40A2661F0232B242BFF
:1059B000252B21F408950A2609F4A140A6958FEF1E
:1059C000811D811D089597F99F6780E870E060E070
:1059D00008959FEF80EC089500240A941616170688
:1059E00018060906089500240A94121613061406D0
:1059F00005060895092E0394000C11F4882352F033
:105A0000BB0F40F4BF2B11F460FF04C06F5F7F4FEA
:105A10008F4F9F4F089557FD9058440F551F59F0D1
:105A20005F3F71F04795880F97FB991F61F09F3F8B
:105A300079F087950895121613061406551FF2CFB4
:105A40004695F1DF08C0161617061806991FF1CF04
:105A500086957105610508940895E894BB2766272B
:105A60007727CB0197F908950E94BF2C08F48FEF98
:105A700008950E944C2D0C94FA2C0E94EC2C38F0C6
:105A80000E94F32C20F0952311F00C94E32C0C943D
:105A9000E92C11240C942E2D0E940B2D70F3959F50
:105AA000C1F3950F50E0551F629FF001729FBB2715
:105AB000F00DB11D639FAA27F00DB11DAA1F649FB1
:105AC0006627B00DA11D661F829F2227B00DA11D64
:105AD000621F739FB00DA11D621F839FA00D611DEA
