S01B0000536D617274536C656576655F323031375F30312E73726563B5
S11300000C94DC1A0C94F91A0C94F91A0C94F91A3D
S11300100C94F91A0C94F91A0C94F91A0C94F91A10
S11300200C94F91A0C94F91A0C94F91A0C94F91A00
S11300300C94F91A0C94F91A0C94F91A0C94F91AF0
S11300400C94F91A0C942A1F0C94F91A0C94F91AAA
S11300500C94F91A0C94F91A0C94F91A0C94F91AD0
S11300600C94F91A0C94F91A0C94F91A0C94F91AC0
S11300700C94F91A0C94F91A0C94F91A0C94F91AB0
S11300800C94F91A0C94F91A0C94F91A0C94F91AA0
S11300900C94F91A0C94F91A0C94F91A0C94F91A90
S11300A00C94F91A0C94F91A0C94F91A7920A120D9
S11300B0A520B620BA20732076206A2672268C26C4
S11300C07C268C268C268C268C268C268C268C26AC
S11300D08C268C268C268C268C268C268C268C268C
S11300E08C268C268C268C268C268C268C268C267C
S11300F08C268C268C2664268C268C268C268C2694
S11301008C268C268C268C2658268C268C268C268F
S11301108C268C268C268C268C268C268C26822655
S1130120872607634236B79BD8A71A39685618AE94
S1130130BAAB558C1D3CB7CC5763BD6DEDFD753E18
S1130140F6177231BF000000803F08000000BE9225
S11301502449123EABAAAA2ABECDCCCC4C3E000008
S11301600080BEABAAAAAA3E00000000BF000000A7
S1130170803F0000000000084178D3BB4387D113BF
S11301803D190E3CC3BD4282AD2B3E68EC8276BE67
S1130190D98FE1A93E4C80EFFFBE01C4FF7F3F0031
S11301A0000000000000250028002B002E00310074
S11301B00000240027002A002D003000FFE0FFD1BA
S11301C0A4AFFF32FFD0FFFEFFE0FFD1AC00AEA52D
S11301D0FFD0FFFEFFE0FFD11001FFFEFFD0FFE0E4
S11301E0FFD1FFCFA3A0C8602CFF322EFF322FFF18
S11301F03226A68118AFFF64A5FF64FF64A4FFD074
S1130200FFFE003B36FDF51E09A315B6207FF9213C
S1130210F51FF80000000C0000051E1E100500F874
S1130220F8F8F8F8F8F8F8F8F8F8F8F8F8F8F8F84A
S1130230F8F8F8F8F8000000F8F8F8F8F80F0C18D7
S1130240150312FC7EFC7EFC7EFC7EF87EF87EF8B4
S11302503CF83C783C783C783C783C191E781D028C
S113026000003C1E00003C1E0000783C0000783C6E
S11302700000783C000078780000F0780000F07806
S1130280000FFFFF801FFFFF001FFFFF001FFFFF86
S11302900001E0E00003C1E00003C1E00003C1E0AD
S11302A0000783C0000783C0007FFFFC00FFFFF846
S11302B000FFFFF800FFFFF8000F0780001E0F008B
S11302C0001E0F00001E0F00003E1E00003C1E001A
S11302D0003C1E00003C1E000015256F1701FC00A9
S11302E0600000600000600003FE000FFF801FFF3D
S11302F0C03FFFE07F6FE07E63F07C63F07C61F0E1
S11303007C60007C60007E60007FE0007FF0003F46
S1130310FE001FFF8007FFE000FFF0007FF0006792
S1130320F80061F8F861F8F860F8FC61F8FC61F82D
S11303307E63F07FFFF03FFFE01FFFC00FFF8003ED
S1130340FE00006000006000006000006000251EE8
S11303509629020007E00078001FF800F0003FFC37
S113036000F0007C3E01E000781E03E000F00F0383
S1130370C000F00F07C000F00F078000F00F0F005F
S113038000F00F0F0000F00F1E0000F00F1E000021
S1130390781E3C00007C3E7C00003FFC783F001F40
S11303A0F8F8FFC007E0F1FFE00001E3E1F000012D
S11303B0E3C0F00003C780780003C7807800078794
S11303C080780007878078000F078078001F0780F7
S11303D078001E03C0F0003E03C0F0003C01F3E0CF
S11303E0007801FFC00078007F801C1E781F020186
S11303F003FF00000FFF80001FFFC0003F8FE000DD
S11304003F07E0003E03E0003F07E0003F07E00055
S11304101F0FC0001F9FC0000FFF80000FFF0000D0
S113042007FC00000FF800001FF80F803FFC0F804E
S11304303F7E0F807E7F0F807E3F8F80FC1FCF80AA
S1130440FC0FFF00F807FF00F803FF00FC01FE00AB
S1130450FC00FE007E00FE007F83FF003FFFFF8064
S11304601FFFFFE007FF87F0060C0C100512FCFCD1
S1130470FC7C7C7C7C7C787878780924481004FBAC
S11304800F801F001F001F003E003E003E007E0044
S11304907C007C007C007C00FC00FC00FC00FC0078
S11304A0F800F800F800F800F800FC00FC00FC007C
S11304B07C007C007C007C007E003E003E003E0010
S11304C01F001F001F000F800824241004FBF0F8F5
S11304D0787C7C7C3E3E3E3F3F1F1F1F1F1F1F1F1B
S11304E01F1F1F1F1F1F3F3F3F3E3E3E7C7C7CF86B
S11304F0F8F01010201A050E04201C381E781E78FF
S11305000FF007E0E3C7FFFFFFFFF3CF07E00FF0B3
S11305101E781E781C38042018194B28080000384F
S113052000003800003800003800003800003800AF
S1130530003800003800003800003800003800FFA0
S1130540FFFFFFFFFFFFFFFF003800003800003807
S1130550000038000038000038000038000038007F
S1130560003800003800003800080A0A0C02FB1F9B
S11305701F3E3E3C7C7878F0F00A050A0E0208FF24
S1130580C0FFC0FFC0FFC0FFC00505050C0400F894
S1130590F8F8F8F80D20401102FE00780078007891
S11305A000F000F000F001E001E001E003C003C04E
S11305B003C003C00780078007800F000F000F00EF
S11305C00E001E001E001E003C003C003C00780093
S11305D0780078007800F000F000141E5A1701012A
S11305E003FC000FFF001FFF803F0F803E07C07C0D
S11305F003C07C03E07C03E07C03E0F801F0F80135
S1130600F0F801F0F801F0F801F0F801F0F801F069
S1130610F801F0F801F0F801F0F801F0F801F07CCD
S113062003E07C03E07C03E07C03E03E07C03F0F73
S1130630801FFF800FFF0003FC000C1E3C1704000A
S113064001F003F00FF03FF0FFF0FFF0FDF0F9F0E0
S1130650E1F081F001F001F001F001F001F001F0AE
S113066001F001F001F001F001F001F001F001F0FE
S113067001F001F001F001F001F001F0141E5A172D
S1130680010103FF0007FF801FFFC01FFFE03FFFC2
S1130690F03F03F07E01F07E01F07C01F00001F0F8
S11306A00003F00003F00007E0000FE0000FC000BB
S11306B01F80003F0000FE0001FC0003F80007F06B
S11306C0000FE0003F80007F0000FC0000FFFFF00F
S11306D0FFFFF0FFFFF0FFFFF0FFFFF0131E5A17BC
S11306E0020107FC001FFF003FFF807FFF807FFFA8
S11306F0C0FC0FC0FC07C0F807C00007C00007C05B
S1130700000FC0003FC003FF8003FE0003FC000392
S1130710FF0003FF80001FC00007E00007E00007A0
S1130720E00003E0F807E0FC07E0FC07C07E0FC030
S11307307FFF803FFF801FFF000FFC00151E5A172C
S11307400100003F80003F80007F8000FF8000FFA9
S11307508001FF8001FF8003EF8003CF8007CF80FB
S11307600F8F800F8F801F0F801F0F803E0F803EE2
S11307700F807C0F80FC0F80F80F80FFFFF8FFFFD5
S1130780F8FFFFF8FFFFF8FFFFF8000F80000F806D
S1130790000F80000F80000F80000F80131E5A1777
S11307A002007FFFC07FFFC07FFFC07FFFC07FFFCD
S11307B0C07C00007C00007C00007C00007C000009
S11307C07C00007CFC007DFF007FFF807FFFC07FFA
S11307D00FE07E07E07C03E00003E00003E0000399
S11307E0E00003E00003E0F807E0FC07E0FC0FC0D2
S11307F07FFF807FFF803FFE000FFC00141E5A170E
S1130800010103FE0007FF000FFF801FFFC03FFF31
S1130810C03F07E07E03E07E03E07C00007C000034
S1130820FC0000F80000F9FF00FBFF80FFFFC0FFA1
S11308300FE0FE07E0FE03F0FC03F0FC03F0FC0114
S1130840F0FC01F07C03F07C03F07E03E03F07E062
S11308503FFFC01FFF800FFF0003FE00131E5A1747
S11308600200FFFFE0FFFFE0FFFFE0FFFFE0FFFF0C
S1130870E00007E00007E00007C0000FC0000FC061
S1130880001F80001F80003F00003F00003F000069
S11308907E00007E0000FC0000FC0001FC0001F86A
S11308A00001F80003F00003F00007F00007E00087
S11308B00FE0000FC0000FC0001FC000141E5A1725
S11308C0010107FE001FFF803FFFC07FFFE07FFFA5
S11308D0E07E07E07C03E07C03E07C03E07C03E053
S11308E07E07E07F0FC03FFF800FFF0007FC001F63
S11308F0FF003FFFC07F0FE07C07E0FC03F0FC0338
S1130900F0F801F0F803F0FC03F0FC03F0FE07F04C
S11309107FFFE03FFFC01FFF800FFF00141E5A1728
S1130920010103FC000FFF001FFF803FFFC07FFF9A
S1130930C07E07E0FC07E0FC03E0FC03F0F803F0F2
S1130940F803F0FC03F0FC07F07C07F07F0FF03FA6
S1130950FFF03FFDF01FF9F007E1F00003F00003A2
S1130960E00003E00003E07C07E07C07C07E0FC0EA
S11309703FFF801FFF000FFE0007FC000514140C4E
S11309800500F8F8F8F8F800000000000000000086
S113099000F8F8F8F8F80919320D02FB1F001F00DF
S11309A01F001F001F0000000000000000000000E6
S11309B0000000000000000000001F801F003F0036
S11309C03E003E007C007C007800F800F000181522
S11309D03F28080200000100000F00003F0001FC56
S11309E00007E0003F0000FC0007E0003F0000FCBF
S11309F00000E00000F800007E00000FC00003F0DB
S1130A0000007E00001FC00003F000007E00001FF5
S1130A10000003180A1E280807FFFFFFFFFFFFFF5F
S1130A20FFFF000000000000000000000000FFFFC6
S1130A30FFFFFFFFFFFFFF18153F2808028000009B
S1130A40F00000FC00003F800007E00000FC000014
S1130A503F000007E00000FC00003F00000700002A
S1130A601F00007E0003F0000FC0007E0003F800AA
S1130A700FC0007E0000F80000C00000121E5A16CD
S1130A80010107FC001FFE003FFF807FFF80FC0F79
S1130A90C07807C03807C00007C00007C0000FC0F7
S1130AA0000F80001F80003F00007E0000F800015E
S1130AB0F00003E00003C00003C00003C00003C053
S1130AC00003C00000000000000000000003E0007C
S1130AD003E00003E00003E00003E0002627C32A4C
S1130AE002F80003FFE000001FFFF800007FFFFE94
S1130AF00000FFFFFF0003FFFFFF8007FE007FC031
S1130B0007F8001FE00FE0000FF01FC00007F03FE0
S1130B10800003F83F01F1F1F83F07FDF1FC7E0F7F
S1130B20FFF0FC7E1FFFF0FC7C1F87F0FCFC3F0302
S1130B30F07CFC3F03F07CFC3E01F07CFC3E01F0C9
S1130B407CF83E01F07CF83E01F07CF83E01F07C3C
S1130B50FC3E01F07CFC3F03F0FC7C3F03F8F87C96
S1130B601F87F9F87E1FFFFFF03F0FFEFFE03F07EE
S1130B70FC7FC01F81F81F001FC00000000FE000B1
S1130B80000007F800000003FE00380001FFFFF832
S1130B900000FFFFF800003FFFF800000FFFF8001F
S1130BA00001FFE0001B1E781C0100003F00000054
S1130BB03F8000007F8000007F8000007FC0000035
S1130BC0FFC00000FFE00000FFE00001FBE00001C7
S1130BD0F3F00003F3F00003F1F00003E1F8000781
S1130BE0E1F80007E0F80007C0FC000FC0FC000FAC
S1130BF0C07E000F807E001FFFFE001FFFFF003F2E
S1130C00FFFF003FFFFF003FFFFF807E001F807E4D
S1130C10001F807E000FC0FC000FC0FC0007C0F85E
S1130C200007E0161E5A1B0300FFFE00FFFF80FFB3
S1130C30FFE0FFFFE0FFFFF0F807F0F803F0F80132
S1130C40F0F801F0F801F0F803F0F807E0FFFFC056
S1130C50FFFF80FFFE00FFFFC0FFFFF0F803F8F87E
S1130C6001F8F800FCF800FCF800FCF800FCF801BE
S1130C70FCF803FCFFFFF8FFFFF0FFFFE0FFFFC0FD
S1130C80FFFF00181E5A1D020101FFC003FFF00FF1
S1130C90FFF80FFFFC1FFFFE3F80FE3E007F7E003B
S1130CA03F7C003F7C003FFC0000FC0000FC000097
S1130CB0F80000F80000F80000F80000F80000FC5C
S1130CC00000FC00007C003F7C003F7E007F3E0073
S1130CD07F3F80FE1FFFFE1FFFFC0FFFF807FFE0B2
S1130CE001FFC0181E5A1D0300FFF800FFFF00FF9C
S1130CF0FFC0FFFFE0FFFFF0F80FF8F801FCF80079
S1130D00FCF8007EF8007EF8003EF8003FF8003F53
S1130D10F8003FF8001FF8001FF8003FF8003FF804
S1130D20003FF8003FF8007EF8007EF800FCF80170
S1130D30FCF80FF8FFFFF0FFFFE0FFFFC0FFFF002C
S1130D40FFF800141E5A190300FFFFE0FFFFE0FF45
S1130D50FFE0FFFFE0FFFFE0F80000F80000F8000C
S1130D6000F80000F80000F80000F80000F80000A7
S1130D70FFFFE0FFFFE0FFFFE0FFFFE0F80000F807
S1130D800000F80000F80000F80000F80000F80087
S1130D9000F80000FFFFF0FFFFF0FFFFF0FFFFF09F
S1130DA0FFFFF0131E5A180300FFFFE0FFFFE0FFF0
S1130DB0FFE0FFFFE0FFFFE0F80000F80000F800AC
S1130DC000F80000F80000F80000F80000FFFFC081
S1130DD0FFFFC0FFFFC0FFFFC0FFFFC0F80000F827
S1130DE00000F80000F80000F80000F80000F80027
S1130DF000F80000F80000F80000F80000F8000017
S1130E00F800001A1E781E0201007FF00001FFFCAA
S1130E100003FFFE000FFFFF000FFFFF801FC03F16
S1130E20803F800FC03F000FC07E000FC07E0007D0
S1130E30C07C000000FC000000FC000000FC00007E
S1130E4000F801FFC0F801FFC0F801FFC0FC01FF7A
S1130E50C0FC01FFC0FC0007C07C0007C07E000787
S1130E60C07F0007C03F8007C03FE007C01FFFFFEF
S1130E70C00FFFFFC007FFFFC001FFFFC0007FFEE0
S1130E8000171E5A1D0300F8003EF8003EF8003E0D
S1130E90F8003EF8003EF8003EF8003EF8003EF848
S1130EA0003EF8003EF8003EF8003EFFFFFEFFFF64
S1130EB0FEFFFFFEFFFFFEFFFFFEF8003EF8003ED0
S1130EC0F8003EF8003EF8003EF8003EF8003EF818
S1130ED0003EF8003EF8003EF8003EF8003EF80000
S1130EE03E051E1E0B0300F8F8F8F8F8F8F8F8F8B9
S1130EF0F8F8F8F8F8F8F8F8F8F8F8F8F8F8F8F86E
S1130F00F8F8F8F8F8141E5A1902000001F000016C
S1130F10F00001F00001F00001F00001F00001F028
S1130F200001F00001F00001F00001F00001F00008
S1130F3001F00001F00001F00001F00001F00001F7
S1130F40F00001F00001F0F801F0F803F0FC03F008
S1130F50FC03F0FE07E07FFFE07FFFC03FFF801F40
S1130F60FF000FFE00171E5A1B0300F801F8F803D8
S1130F70F8F807F0F80FE0F80FC0F81FC0F83F804A
S1130F80F87F00F87E00F8FE00F9FC00FBF800FB97
S1130F90F000FFF000FFF000FBF800F9FC00F9FEA0
S1130FA000F8FE00F87F00F87F80F83F80F81FC04B
S1130FB0F81FE0F80FE0F807F0F807F8F803F8F87E
S1130FC001FCF800FE131E5A170300F80000F80095
S1130FD000F80000F80000F80000F80000F8000035
S1130FE0F80000F80000F80000F80000F80000F82D
S1130FF00000F80000F80000F80000F80000F80015
S113100000F80000F80000F80000F80000F8000004
S1131010F80000F80000FFFFE0FFFFE0FFFFE0FF43
S1131020FFE0FFFFE01F1E78250300FFC003FEFF63
S1131030C003FEFFC007FEFFC007FEFFE007FEFB84
S1131040E00FFEFBE00FFEFBF00FBEFBF00FBEF95E
S1131050F01FBEF9F01F3EF9F81F3EF8F83F3EF8C6
S1131060F83F3EF8FC3E3EF87C7E3EF87C7E3EF83F
S11310707E7C3EF87E7C3EF83EFC3EF83EF83EF830
S11310803FF83EF81FF83EF81FF83EF81FF03EF810
S11310901FF03EF80FF03EF80FE03EF80FE03EF888
S11310A007E03E191E781F0300FF800F80FF800FAA
S11310B080FF800F80FFC00F80FFC00F80FFE00F14
S11310C080FBE00F80FBF00F80F9F00F80F9F80F40
S11310D080F8F80F80F8FC0F80F8FC0F80F87E0F82
S11310E080F87E0F80F83F0F80F83F0F80F81F8F45
S11310F080F81F8F80F80F8F80F80FCF80F807CF0C
S113110080F807EF80F803EF80F803FF80F801FF11
S113111080F801FF80F800FF80F800FF80F8007F6E
S1131120801B1E781F020100FFE00003FFF8000788
S1131130FFFC000FFFFE001FFFFF003FC07F803F4A
S1131140001F807F001FC07E000FC07E000FC0FC08
S1131150000FE0FC0007E0FC0007E0FC0007E0FCF7
S11311600007E0FC0007E0FC0007E0FC0007E0FCEF
S11311700007E0FC000FE07E000FC07E000FC07F80
S1131180001FC03F001F803FC07F801FFFFF000F74
S1131190FFFE0007FFFC0003FFF80000FFE000155E
S11311A01E5A1A0300FFFC00FFFF80FFFFC0FFFF71
S11311B0E0FFFFF0F807F0F803F8F801F8F801F899
S11311C0F800F8F801F8F801F8F801F8F807F0FF6A
S11311D0FFF0FFFFE0FFFFC0FFFF80FFFC00F8000F
S11311E000F80000F80000F80000F80000F8000023
S11311F0F80000F80000F80000F80000F800001EF5
S11312001E7821020100FFE00003FFF80007FFFC45
S1131210000FFFFE001FFFFF003FC07F803F001F45
S1131220807F001FC07E000FC07E000FC0FC000F37
S1131230E0FC0007E0FC0007E0FC0007E0FC00071E
S1131240E0FC0007E0FC0007E0FC0007E0FC00070E
S1131250E0FC000FC07E000FC07E000FC07F001FA7
S1131260803F001F803FC07F001FFFFEFC0FFFFF79
S1131270FC07FFFFFC03FFFFFC00FFFFFC171E5AE7
S11312801B0300FFFF00FFFFE0FFFFF0FFFFF8FF7D
S1131290FFF8F803FCF801FCF800FCF8007CF80007
S11312A07CF800FCF801F8F807F0FFFFE0FFFFC04E
S11312B0FFFF80FFFFE0FFFFF0F803F8F801F8F804
S11312C001F8F800F8F800F8F800F8F800FCF80065
S11312D0FCF800FCF800FCF8007CF8007E171E5AAD
S11312E01B020101FF8007FFE00FFFF01FFFF03F2B
S11312F0FFF83F01F87E00FC7E00FC7C007C7E0051
S1131300007E00003F80003FF0001FFE000FFFC082
S113131003FFF0007FF80007FC0001FC00007EF8EA
S1131320007EF8003EFC007EFC007E7E00FC7FFF19
S1131330FC3FFFF81FFFF00FFFE003FF80171E5A6A
S1131340190100FFFFFEFFFFFEFFFFFEFFFFFEFF90
S1131350FFFE007C00007C00007C00007C00007C20
S113136000007C00007C00007C00007C00007C000D
S1131370007C00007C00007C00007C00007C0000FD
S11313807C00007C00007C00007C00007C00007C71
S113139000007C00007C00007C00007C00181E5AC9
S11313A01E0300F8001FF8001FF8001FF8001FF8C4
S11313B0001FF8001FF8001FF8001FF8001FF800B6
S11313C01FF8001FF8001FF8001FF8001FF8001F87
S11313D0F8001FF8001FF8001FF8001FFC001FFC96
S11313E0001FFC003F7C003F7E007E7F00FE3FFF2D
S11313F0FC1FFFFC1FFFF807FFE001FFC01C1E7865
S11314001E0100FC0003F0FC0007F0FE0007E07E74
S11314100007E07E000FC07F000FC03F001FC03FE9
S1131420001F803F801F801F803F801F803F001F60
S1131430C03F000FC07F000FC07E0007E07E0007A2
S1131440E0FC0007E0FC0003F0FC0003F1F80003FB
S1131450F9F80001F9F80001FBF00001FFF00000C9
S1131460FFF00000FFE00000FFE000007FC000008C
S11314707FC000007FC000003F8000261E96280128
S113148000FC00FC00FCFC01FE00FCFC01FE00FC76
S1131490FC01FE01FCFE01FE01FC7E03FF01F87E5F
S11314A003FF01F87E03FF01F87E03FF01F83F0705
S11314B0FF83F03F07CF83F03F07CF83F03F07CF91
S11314C083F01F0FCFC3E01F8F87C7E01F8F87C72D
S11314D0E01F8F87C7E00F9F87E7C00F9F03E7C018
S11314E00FDF03EFC00FDF03EFC007FF03FF800729
S11314F0FE01FF8007FE01FF8007FE01FF8003FE5F
S113150001FF0003FC00FF0003FC00FF0003FC00DC
S1131510FF0003FC00FF001A1E781C01007E001F60
S1131520807F003F803F803F003F807E001FC07E61
S1131530000FC0FC000FE1F80007F1F80003F3F01E
S11315400003FBE00001FFE00000FFC00000FF809B
S113155000007F8000007F0000007F800000FF808B
S11315600001FFC00001FFE00003F7E00003E3F027
S11315700007E3F8000FC1F8000F81FC001F80FE94
S1131580003F007E003F007F007E003F80FC001F84
S113159080FC001FC0181E5A190100FC007FFE00C9
S11315A07E7E00FE7F00FC3F01FC3F01F81F83F8B4
S11315B01F83F00FC3F00FC7E007E7E007EFC00396
S11315C0FFC003FF8001FF8001FF0000FF0000FE59
S11315D000007E00007C00007C00007C00007C0099
S11315E0007C00007C00007C00007C00007C00008B
S11315F07C00007C00161E5A1A02007FFFFC7FFF4D
S1131600FC7FFFFC7FFFFC7FFFFC0001FC0003F874
S11316100007F0000FF0001FE0001FC0003F800033
S11316207F8000FF0000FE0001FC0003FC0007F8BF
S11316300007F0000FE0001FE0003FC0003F800003
S11316407F0000FF0000FFFFFCFFFFFCFFFFFCFF2B
S1131650FFFCFFFFFC09264C0F03F8FF80FF80FF0F
S113166080FF80F800F800F800F800F800F800F8AF
S113167000F800F800F800F800F800F800F800F8A6
S113168000F800F800F800F800F800F800F800F896
S113169000F800F800F800F800F800F800F800FF7F
S11316A080FF80FF80FF800D20401102FEF000F0DB
S11316B00078007800780078003C003C003C001E74
S11316C0001E001E000E000F000F000F0007800711
S11316D080078003C003C003C003C001E001E00130
S11316E0E000F000F000F000700078007809264C6B
S11316F00F03F8FF80FF80FF80FF800F800F800FB3
S1131700800F800F800F800F800F800F800F800F5D
S1131710800F800F800F800F800F800F800F800F4D
S1131720800F800F800F800F800F800F800F800F3D
S1131730800F800F800F80FF80FF80FF80FF801468
S1131740194B280A0000600000F00000F00000F0CF
S11317500001F800019800039C00030C00030C0036
S1131760070E000606000606000E07000C03001C08
S113177003801C01801801803801C03000C0300093
S1131780C07000E0600060E00070E00070C00030F5
S113179014040C1400FAFFFFF0FFFFF0FFFFF0FF4A
S11317A0FFF00908100AFF19F8007C003C003E0015
S11317B01E000F000700038013143C1602010FFEE5
S11317C0001FFF003FFF807E0F807C0FC00007C01A
S11317D0007FC00FFFC03FFFC07FFFC07F07C0FC7A
S11317E007C0FC07C0F80FC0F80FC0FC0FC0FE1FF5
S11317F0C07FFFC03FF7C01FE3E0141E5A19030067
S1131800F80000F80000F80000F80000F80000F804
S11318100000F80000F80000F80000F80000F9FEED
S113182000FBFF80FFFFC0FF0FC0FE07E0FC03E0EA
S1131830FC03F0FC03F0FC03F0F801F0F801F0F80D
S113184003F0FC03F0FC03F0FC03E0FE07E0FF0FF1
S1131850C0FBFFC0FBFF80F8FE0011143C15020121
S11318600FFC001FFE003FFF007E3F007C1F807CBA
S11318701F80FC0F80F80000F80000F80000F8005A
S113188000F80000F80000FC0F80FC1F807C1F8023
S11318907E3F003FFF001FFE000FFC00141E5A197C
S11318A002000001F00001F00001F00001F000016D
S11318B0F00001F00001F00001F00001F00001F07F
S11318C007F9F01FFDF03FFFF03F0FF07E07F07CBB
S11318D003F0FC03F0FC03F0FC03F0F801F0F80162
S11318E0F0F803F0FC03F0FC03F07C03F07E07F057
S11318F03F0FF03FFDF01FF9F007F1F013143C1611
S1131900020107FC001FFF003FFF003E1F807C0F09
S1131910C07C07C0FC07C0FFFFC0FFFFC0FFFFE0A3
S1131920FFFFE0F80000F80000FC00007C07C07C2A
S11319300FC07E1F803FFF801FFF0007FC000E1EAC
S11319403C0F010103FC07FC0FFC0FC00F800F804C
S11319500F800F800F800F80FFF8FFF8FFF8FFF86B
S11319600F800F800F800F800F800F800F800F80FB
S11319700F800F800F800F800F800F800F800F80EB
S1131980141C541902F907F9F01FFDF03FFFF03F52
S11319900FF07E07F07C03F0FC03F0FC03F0FC0383
S11319A0F0F801F0F801F0F803F0FC03F0FC03F0A8
S11319B07C07F07E07F03FFFF03FFDF00FF9F003E6
S11319C0E1F00003F00003F07C03F07E07E03FFF4A
S11319D0E03FFFC01FFF8003FC00121E5A180300E3
S11319E0F80000F80000F80000F80000F80000F823
S11319F00000F80000F80000F80000F80000F9FF0B
S1131A0000FBFF80FFFFC0FF1FC0FE0FC0FC07C02C
S1131A10FC07C0FC07C0F807C0F807C0F807C0F807
S1131A2007C0F807C0F807C0F807C0F807C0F807F0
S1131A30C0F807C0F807C0F807C0061E1E0A020057
S1131A40FCFCFCFCFC00000000007C7C7C7C7C7CBE
S1131A507C7C7C7C7C7C7C7C7C7C7C7C7C7C07278C
S1131A60270D04F77E7E7E7E7E00000000003E3E51
S1131A703E3E3E3E3E3E3E3E3E3E3E3E3E3E3E3E82
S1131A803E3E3E3E3E7EFEFEFEFCF8121E5A16030D
S1131A9000F80000F80000F80000F80000F800006A
S1131AA0F80000F80000F80000F80000F80000F862
S1131AB01FC0F81F80F83F00F87E00F8FC00F9FC16
S1131AC000F9F800FBF000FFE000FFF000FBF0007D
S1131AD0F9F800F9FC00F8FC00F87E00F87F00F843
S1131AE03F00F81F80F81FC0F80FC0051E1E0B032F
S1131AF000F8F8F8F8F8F8F8F8F8F8F8F8F8F8F85A
S1131B00F8F8F8F8F8F8F8F8F8F8F8F8F8F8F81F2A
S1131B101450250301F8FF0FF0F9FF9FFCFBFFBFF2
S1131B20FCFF1FF8FEFE0FF07EFC07E03EFC07E022
S1131B303EF807C03EF807C03EF807C03EF807C0AD
S1131B403EF807C03EF807C03EF807C03EF807C09D
S1131B503EF807C03EF807C03EF807C03EF807C08D
S1131B603EF807C03E12143C180301F9FF00FBFFC6
S1131B7080FBFFC0FF1FC0FE0FC0FC07C0FC07C0F6
S1131B80FC07C0F807C0F807C0F807C0F807C0F89A
S1131B9007C0F807C0F807C0F807C0F807C0F8077F
S1131BA0C0F807C0F807C014143C18020103FE0073
S1131BB00FFF001FFFC03F0FC07E03E07C03F0FC5B
S1131BC001F0FC01F0FC01F0F801F0F801F0F8017B
S1131BD0F0FC01F0FC01F07C03F07E03E03F0FC059
S1131BE01FFFC00FFF0003FE00141C541903F9F873
S1131BF0FE00F9FF80FBFFC0FF0FC0FE07E0FC03FF
S1131C00E0FC03F0FC03F0FC03F0F801F0F801F051
S1131C10FC03F0FC03F0FC03F0FC03E0FE07E0FF30
S1131C200FC0FFFFC0FBFF80F9FE00F80000F800C2
S1131C3000F80000F80000F80000F80000F80000C8
S1131C40F80000141C541902F907F1F01FFDF03FCD
S1131C50FDF03F0FF07E07F07C03F0FC03F0FC0383
S1131C60F0F803F0F801F0F801F0FC03F0FC03F0E5
S1131C70FC03F07C03F07E07F03F0FF03FFFF01F02
S1131C80FDF007F9F00001F00001F00001F000019F
S1131C90F00001F00001F00001F00001F00C142844
S1131CA0100301F8F0F9F0FBF0FFF0FFF0FF00FE85
S1131CB000FC00FC00F800F800F800F800F800F858
S1131CC000F800F800F800F800F80011143C1502C0
S1131CD0010FFC003FFE007FFF007E1F807C1F8001
S1131CE07C0F807E00007F80003FF8003FFE0007ED
S1131CF0FF0000FF80001F80000F80F80F80FC0FA2
S1131D00807E1F807FFF003FFE001FFC000F1A34FF
S1131D101101000080018007800F800F800F80FF79
S1131D20FCFFFCFFFCFFFC0F800F800F800F800F77
S1131D30800F800F800F800F800F800F800FC00FE7
S1131D40E007FE07FE01FE12143C180300F807C06A
S1131D50F807C0F807C0F807C0F807C0F807C0F8CC
S1131D6007C0F807C0F807C0F807C0F807C0F807AD
S1131D70C0F807C0FC07C0FC0FC0FC0FC0FE1FC0AA
S1131D807FFFC03FF7C01FE7C014143C160100F8E2
S1131D9003F0FC03F0FC03E07C07E07E07E07E0731
S1131DA0C03E0FC03F0FC01F0F801F1F801F9F002A
S1131DB00F9F000FBF000FFE0007FE0007FE000389
S1131DC0FC0003FC0003F80001F800211464220164
S1131DD000F807E01F80F80FF01F00FC0FF01F0051
S1131DE0FC0FF03F007C0FF83E007E1FF83E007EA3
S1131DF01FF87E003E1F7C7E003E3E7C7C003F3E02
S1131E007C7C001F3E7EFC001F7C3EF8001FFC3ED5
S1131E10F8000FFC3FF8000FFC1FF0000FF81FF054
S1131E20000FF81FF00007F80FF00007F00FE000B4
S1131E3007F00FE00014143C160100FE03E07E07D7
S1131E40E03F0FC01F8F801F9F800FDF0007FE0041
S1131E5007FE0003FC0003FC0003FC0007FE000F68
S1131E60FF000FBF001F9F803F1FC03E0FC07E07B3
S1131E70E0FC07E0FC03F0141C541601F8FC03F02A
S1131E80FC03F0FC03E07E07E07E07E03F07C03F71
S1131E900FC03F0FC01F8F801F9F800F9F800FDFD9
S1131EA0000FFF0007FF0007FE0003FE0003FC0015
S1131EB003FC0001FC0001F80001F80001F8000136
S1131EC0F00003F00003F00007E00007E00007E083
S1131ED00011143C150200FFFF00FFFF00FFFF008C
S1131EE0FFFF00003F00007E0000FC0001F800033B
S1131EF0F00007F0000FE0000FC0001F80003F005B
S1131F00007E0000FC0000FFFF80FFFF80FFFF80D9
S1131F10FFFF800F29521403F6000200FE01FE03A6
S1131F20FE07F007E007C007C007C007C007C007E7
S1131F30C007C007C007C007C00FC00F803F80FEA6
S1131F4000FC00FE00FF003F800F800FC007C007A9
S1131F50C007C007C007C007C007C007C007C00745
S1131F60E007E003FE03FE01FE003E032B2B0D05FC
S1131F70F5E0E0E0E0E0E0E0E0E0E0E0E0E0E0E048
S1131F80E0E0E0E0E0E0E0E0E0E0E0E0E0E0E0E04D
S1131F90E0E0E0E0E0E0E0E0E0E0E0E00F28501422
S1131FA003F7FC00FF00FF001F800F800F800F80ED
S1131FB00F800F800F800F800F800F800FC00FC025
S1131FC007E007E003F801FE007E00FE03FC07E0E3
S1131FD007C007C00FC00F800F800F800F800F80D5
S1131FE00F800F800F800F801F80FF80FF00FE0096
S1131FF0F80015050F1500080FC0783FFFF87FFFA4
S1132000F07FFFE0F01F80FF00101000FE0A06A71B
S1132010089500FFFE0EFE0BFE1010201000FEAA15
S1132020AA00018000000180004A51EA505A51C9B7
S11320309E000180000001800000018000555510C1
S113204010201000FEAAAA000180000001800039BF
S113205093C252325F8A5271938000000180000063
S113206001800055551010201000FEAAAA0001801E
S113207000000180003BA5C1243119892471258009
S11320800000018000000180005555101020100050
S1132090FEAAAA00018000000180007BA5C124796A
S11320A019C12479258000000180000001800055B9
S11320B0551010201000FEAAAA0001800000018023
S11320C00079BFC2487A49C24879898000000180FA
S11320D0000001800055551010201000FEAAAA002F
S11320E0018000000180007A4DC2527B53C2D67A2F
S11320F04F80000001800000018000555510102021
S11321001000FEAAAA000180000001800031A5CAC7
S1132110287A31CA2849A580000001800000018086
S11321200055551010201000FEAAAA0001800000DE
S113213001800073D1CA1073D1CA1073DF8000000C
S11321400180000001800055551010201000FEAAE7
S1132150AA00018000000180001E3991401E3191C7
S1132160081E718000000180000001800055551098
S113217010201000FEAAAA000180000001800022A5
S1132180F9A2203E21A2202221800000018000002B
S113219001800055551010201000FEAAAA000180ED
S11321A0000001800020F9A08020F9A0803E8180F9
S11321B0000001800000018000555510102010001F
S11321C0FEAAAA000180000001800022F9A22022B8
S11321D02194200821800000018000000180005526
S11321E0551010201000FEAAAA00018000000180F2
S11321F0003EF9A0803EF9A080208180000001808B
S1132200000001800055551010201000FEAAAA00FD
S1132210018000000180001EF1A08820F1A0901E22
S113222089800000018000000180005555101020B5
S11322301000FEAAAA00018000000180001E71A007
S1132240881C8982883C7180000001800000018024
S11322500055551010201000FEAAAA0001800000AD
S11322600180001EF9A0201C2182203CF98000007E
S11322700180000001800055551010201000FEAAB6
S1132280AA0001800000018000391DA510251DA5AC
S11322901039DD80000001800000018000555510D8
S11322A010201000FEAAAA00018000000180007125
S11322B089CA184A09CA08719D800000018000007B
S11322C001800055551010201000FEAAAA000180BC
S11322D000000180007199CA044A09CA10719D80E6
S11322E000000180000001800055551010201000EE
S11322F0FEAAAA00018000000180007199CA044A64
S113230019CA047199800000018000000180005501
S1132310551010201000FEAAAA00018000000180C0
S1132320007185CA0C4A15CA1C71858000000180A1
S1132330000001800055551010201000FEAAAA00CC
S1132340018000000180004993EA546A59DBD44AB1
S113235053800000018000000180005555101020BA
S11323601000FEAAAA00018000000180003453C2BC
S11323709A311789127113800000018000000180D6
S11323800055551010201000FEAAAA00018000007C
S11323900180007BB9C1247939C1247939800000D6
S11323A00180000001800055551010201000FEAA85
S11323B0AA00018000000180003325C4B447ADC4E5
S11323C0A434A58000000180000001800055551050
S11323D010201000FEAAAA00018000000180003E27
S11323E089A0D83EA9A0883E898000000180000011
S11323F001800055551010201000FEAAAA0001808B
S113240000000180003A5DC252325D8A52719D80A3
S113241000000180000001800055551010201000BC
S1132420FEAAAA000180000001800079CFC21079C1
S113243091C0507B8F800000018000000180005516
S1132440551010201000FEAAAA000180000001808F
S1132450001E7190801E61901010E18000000180C8
S1132460000001800055551010201000FEAAAA009B
S1132470018000000180000E719080166192100EA0
S1132480E1800000018000000180005555101020FB
S11324901000FEAAAA00018000000180001C7192B5
S11324A0801C61941012E180000001800000018012
S11324B00055551010201000FEAAAA00018000004B
S11324C001800012719280126192100CE180000070
S11324D001800000018000555500000008000E0135
S11324E00A0A080400808080808080800080800543
S11324F0040408020888888888060A0A0801002457
S11325002424FC4848FC909090070A0A0801001013
S11325107C9290701C12927C10070A0A08010062D7
S113252094946810102C52528C070A0A080100383F
S113253044442830528A848C7201040408040880BC
S1132540808080030C0C0803FF2040408080808042
S11325508080404020030C0C0802FF804040202073
S113256020202020404080070707080101109254D2
S113257038549210070707080101101010FE1010BC
S1132580100204040803FEC0404080040101080254
S113259004F0020202080300C0C0060A0A0801008F
S11325A004040810102020408080060A0A08010054
S11325B030488484848484844830050A0A080200EC
S11325C02060A0202020202020F8060A0A0801000C
S11325D0788484041820408080FC060A0A080100DC
S11325E078848404380404848478060A0A08010080
S11325F0081828488888FC080808060A0A08010000
S1132600FC808080F80404048478060A0A08010027
S113261038408080F88484848478060A0A0801009B
S1132620FC040408080810101010060A0A08010027
S113263078848484788484848478060A0A0801006F
S1132640788484847C040404087002070708030166
S1132650C0C0000000C0C00209090803FFC0C000D8
S11326600000C0404080050909080200081020400D
S11326708040201008060505080102FC000000FC4B
S11326800509090801008040201008102040800638
S11326900A0A080100788484040810100010100647
S11326A00A0A080100384494ACA4A4A49C403C0643
S11326B00A0A0801003048488484FC84848484061F
S11326C00A0A080100F8848484F884848484F8065F
S11326D00A0A0801007884848080808084847806D3
S11326E00A0A080100F08884848484848488F006BB
S11326F00A0A080100FC808080F880808080FC0643
S11327000A0A080100FC808080F8808080808006AE
S11327100A0A08010078848480809C84848C74066E
S11327200A0A08010084848484FC848484848405E3
S11327300A0A080200F82020202020202020F80780
S11327400A0A0801003E0808080808088888700674
S11327500A0A080100848890A0C0C0A0908884065A
S11327600A0A080100808080808080808080FC06C6
S11327700A0A0801008484CCCCB4B484848484061A
S11327800A0A08010084C4C4A4A494948C8C84060A
S11327900A0A080100788484848484848484780602
S11327A00A0A080100F8848484F880808080800705
S11327B00B0B0801FF78848484848484B4CC780669
S11327C0060A0A080100F8848484F89088888484BE
S11327D0060A0A08010078848480601804848478D6
S11327E0070A0A080100FE10101010101010101033
S11327F0060A0A0801008484848484848484847896
S1132800070A0A08010082828244444428281010DE
S1132810060A0A08010084848484B4B4CCCC848479
S1132820060A0A08010084844848303048488484F1
S1132830070A0A080100828244442810101010106C
S1132840060A0A080100FC0404081020408080FCE9
S1132850030C0C0804FFE0808080808080808080EE
S113286080E0060A0A080100808040202010100839
S11328700404030C0C0801FFE02020202020202069
S1132880202020E0060303080109304884070101E1
S11328900801FFFE03030308020A8040200608081B
S11328A00801007884047C84848C74060B0B080172
S11328B000808080B8C484848484C4B8060808086E
S11328C001007884808080808478060B0B080100E6
S11328D0040404748C848484848C740608080801B9
S11328E000788484FC80808478050B0B0801001830
S11328F0202020F8202020202020060B0B0801FE99
S11329000474888888704078848478060B0B0801E6
S113291000808080B8C4848484848484050B0B087C
S1132920020020200060202020202020F8050D0D2A
S11329300801FE080800180808080808080890603C
S1132940060B0B0801008080808890A0C0A09088AE
S113295084050B0B0802006020202020202020206A
S113296020F8070808080100EC9292929292929241
S1132970060808080100B8C4848484848484060892
S1132980080801007884848484848478060A0A0808
S113299001FEB8C484848484C4B88080060A0A080A
S11329A001FE748C848484848C74040406080808EE
S11329B00100B8C484808080808006080808010073
S11329C07884806018048478050A0A0801002020AD
S11329D020F82020202020180608080801008484FC
S11329E0848484848C7406080808010084848448E0
S11329F04848303007080808010082929292929267
S1132A00926C0608080801008484483030488484A5
S1132A10060A0A0801FE84848484844C34040478FD
S1132A20060808080100FC040810204080FC030C80
S1132A300C0803FF608080404080804040808060BC
S1132A40010E0E0804FE808080808080808080805B
S1132A5080808080030C0C0802FFC02020404020AE
S1132A602040402020C007030308010862928C1014
S1132A7010201000FEAAAA0001800000018000734B
S1132A80D1CA104BD1CA1073DF800000018000004E
S1132A9001800055551010201000FEAAAA000180E4
S1132AA00000018000719DCA5273D3C252425D80FE
S1132AB00000018000000180005555101020100016
S1132AC0FEAAAA0001800000018000499DCA527A32
S1132AD05DCA5049918000000180000001800055CA
S1132AE0551010201000FEAAAA00018000000180E9
S1132AF0007393CA52739FCA12721380000001803C
S1132B00000001800055551010201000FEAAAA00F4
S1132B10018000000180004B93EA525B9FCA524B34
S1132B2093800000018000000180005555101020A2
S1132B301000FEAAAA000180000001800074B9A65A
S1132B40A425A5A4A474B98000000180000001801C
S1132B500055551010201000FEAAAA0001800000A4
S1132B600180004BD1EA105BD1CA104BDF8000001A
S1132B700180000001800055551010201000FEAAAD
S1132B80AA000180000001800039CDC212319F8863
S1132B90527393800000018000000180005555109D
S1132BA010201000FEAAAA00018000000180007914
S1132BB0CDC212799FC0527B938000000180000037
S1132BC001800055551010201000FEAAAA000180B3
S1132BD000000180004B9DC9207919C9044939803E
S1132BE000000180000001800055551010201000E5
S1132BF0FEAAAA000180000001800025DDA4843C17
S1132C0085A484249980000001800000018000557F
S1132C10551010201000FEAAAA00018000000180B7
S1132C200045CDC4904489A8841099800000018097
S1132C30000001800055551010201000FEAAAA00C3
S1132C4001800000018000721DCA127213C2124377
S1132C50DD80000001800000018000555510102027
S1132C601000FEAAAA00018000000180007213CAAD
S1132C70127213C21243CD80000001800000018053
S1132C800055551010201000FEAAAA000180000073
S1132C900180000E2189200E218A20092180000054
S1132CA00180000001800055551010201000FEAA7C
S1132CB0AA000180000001800039DDC202318D8844
S1132CC050739F8000000180000001800055551062
S1132CD010201000FEAAAA00018000000180003923
S1132CE0DDC202318D8842739D80000001800000A6
S1132CF001800055551010201000FEAAAA00018082
S1132D00000001800071CFCA104A0DCA0271DD8033
S1132D1000000180000001800055551010201000B3
S1132D20FEAAAA00018000000180007245CA4C720C
S1132D3045C244418F80000001800000018000559D
S1132D40551010201000FEAAAA0001800000018086
S1132D5000725DCA42724DC250419F8000000180E2
S1132D60000001800055551010201000FEAAAA0092
S1132D70018000000180003B9DC12031198904714C
S1132D80398000000180000001800055551010209A
S1132D901000FEAAAA000180000001800039D3C2FD
S1132DA012421FC21239D38000000180000001804A
S1132DB00055551010201000FEAAAA000180000042
S1132DC00180002289B6882AA9A2D822898000001D
S1132DD00180000001800055551010201000FEAA4B
S1132DE0AA00018000000180003B8DC252339F8AFB
S1132DF012721380000001800000018000555510FC
S1132E0010201000FEAAAA00018000000180007BAF
S1132E108DC2527B9FC2127A138000000180000091
S1132E2001800055551010201000FEAAAA00018050
S1132E300000018000398FC250324D8A42719D805A
S1132E400000018000000180005555101020100082
S1132E50FEAAAA0001800000018000339BC4222541
S1132E60A394A2639B8000000180000001800055B0
S1132E70551010201000FEAAAA0001800000018055
S1132E800039DDC20832098A0871DD800000018042
S1132E90000001800055551010201000FEAAAA0061
S1132EA00180000001800039DDC2084189C0483B2F
S1132EB09D80000001800000018000555510102005
S1132EC01000FEAAAA00018000000180000EF99003
S1132ED0200C2182201C2180000001800000018040
S1132EE00055551010201000FEAAAA000180000011
S1132EF001800031CFCA104991C850338F8000003F
S1132F000180000001800055551010201000FEAA19
S1132F10AA00018000000180001C8992D81CA9909D
S1132F208810898000000180000001800055551040
S1132F3010201000FEAAAA000180000001800033C6
S1132F408FCA507B91CA104A0F8000000180000094
S1132F50018000555500000008000E010A0A08040B
S1132F600080800080808080808080070A0A0801B9
S1132F700010107C929090927C1010070A0A0801AD
S1132F80001C202020F82020207CC206080808010C
S1132F90018448784848784884070A0A080100826E
S1132FA0442810FE10FE101010010A0A08040080C4
S1132FB0808080000080808080060A0A08010078F2
S1132FC084807884847804847804020208020C9053
S1132FD090080A0A0800003C4299A5A1A1A59942BB
S1132FE03C050707080205700878887800F8060988
S1132FF0090801002424484890484824240604046D
S1133000080100FC0404041010201000FEAAAA0009
S11330100180003A63C25433C98A4872498000006F
S113302001800003C18000000180005555080A0A90
S11330300800003C42B9A5A5B9A9A5423C06010176
S113304008010BFC03040408020A40A0A04007097D
S113305009080101101010FE10101000FE050707EA
S1133060080205708808708080F8050707080205C3
S11330707088087008887003030308030A204080DE
S1133080080A0A0800FE424242424242665940800F
S1133090060C0C0801FF7CF4F4F4F47414141414F6
S11330A0141C020202080304C0C00302020802FE48
S11330B020C00307070802052060A0202020200567
S11330C00707080205708888887000F8060909084F
S11330D00100909048482448489090060A0A080144
S11330E00044C4485050242C549C84060A0A080105
S11330F00044C4485050283444889C060A0A0801F5
S113310000C4244830D0242C549C84060A0A0801A4
S11331100010100010106084848478060E0E0801DC
S113312000601800003048488484FC848484840649
S11331300E0E080100186000003048488484FC84A6
S1133140848484060E0E080100304800003048488C
S11331508484FC84848484060E0E08010064980030
S1133160003048488484FC84848484060E0E08015C
S113317000484800003048488484FC8484848406E1
S11331800E0E080100304830003048488484FC8426
S1133190848484070A0A0801003E509090FE9090AF
S11331A090909E060C0C0801FE78848480808080B8
S11331B08484781060060E0E08010060180000FC7C
S11331C0808080F880808080FC060E0E0801001844
S11331D0600000FC808080F880808080FC060E0EF9
S11331E008010030480000FC808080F880808080E6
S11331F0FC060E0E08010048480000FC808080F8A0
S113320080808080FC050E0E08020060180000F823
S11332102020202020202020F8050E0E0802003057
S1133220C00000F82020202020202020F8050E0EC9
S113323008020060900000F8202020202020202098
S1133240F8050E0E08020090900000F820202020BF
S113325020202020F8070A0A08000078444242F29D
S11332604242424478060E0E08010064980000842D
S1133270C4C4A4A494948C8C84060E0E080100602B
S113328018000078848484848484848478060E0EF0
S11332900801001860000078848484848484848411
S11332A078060E0E08010030480000788484848477
S11332B08484848478060E0E0801006498000078E3
S11332C0848484848484848478060E0E08010048EF
S11332D04800007884848484848484847806050582
S11332E00801028448304884060C0C0801FF047469
S11332F0888C9494A4A4C444B880060E0E080100DB
S11333006018000084848484848484848478060E11
S11333100E080100186000008484848484848484FA
S11333208478060E0E0801003048000084848484EA
S1133330848484848478060E0E08010048480000C2
S113334084848484848484848478070E0E08010031
S11333501860000082824444281010101010060BDC
S11333600B0801008080F088848488F080808006C7
S11333700A0A08010070888890B0888484A498069A
S11333800C0C080100601800007884047C84848C90
S113339074060C0C080100186000007884047C8416
S11333A0848C74060C0C08010030480000788404F6
S11333B07C84848C74060C0C0801006498000078EA
S11333C084047C84848C74060C0C08010048480036
S11333D0007884047C84848C74060D0D080100300C
S11333E0483000007884047C84848C7407080808BE
S11333F001007C92127E9090927C060A0A0801FEDB
S113340078848080808084781060060C0C08010029
S113341060180000788484FC80808478060C0C0892
S1133420010018600000788484FC80808478060C95
S11334300C08010030480000788484FC8080847883
S1133440060C0C08010048480000788484FC808045
S11334508478050C0C080200C03000006020202095
S1133460202020F8050C0C08020030C00000602069
S11334702020202020F8050C0C0802006090000099
S113348060202020202020F8050C0C0802009090D9
S1133490000060202020202020F8060C0C080100E9
S11334A064182844047C848484848478060C0C087E
S11334B0010064980000B8C4848484848484060C65
S11334C00C08010060180000788484848484847863
S11334D0060C0C080100186000007884848484843D
S11334E08478060C0C080100304800007884848439
S11334F084848478060C0C080100649800007884A5
S1133500848484848478060C0C08010048480000F4
S11335107884848484848478060707080101300051
S113352000FC000030060A0A0801FF04788C949419
S1133530A4A4C47880060C0C080100601800008460
S113354084848484848C74060C0C08010018600044
S1133550008484848484848C74060C0C08010030F8
S11335604800008484848484848C74060C0C0801D0
S113357000484800008484848484848C74060E0E7D
S11335800801FE1860000084848484844C3404049C
S113359078050C0C0802FE8080F088888890A0C012
S11335A0808080060E0E0801FE4848000084848452
S11335B084844C340404780011241FBECFEFDAE075
S11335C0DEBFCDBF11E0A0E0B1E0E2E8FAE502C061
S11335D005900D92AA35B107D9F722E0AAE5B1E02A
S11335E001C01D92A936B207E1F70E94EE1E0C94A9
S11335F03F2D0C940000EAE7F0E087E080838081AF
S1133600806880830895ECE7F0E080838081806C9B
S11336108083EAE7F0E0808180648083808186FD96
S1133620FDCF809178009091790008958091700188
S11336300E94031B90936F0180936E01BC0180E094
S113364090E00E94AF272AE037ED43E250E40E9465
S1133650662820E030EC4FE754E40E94072760938B
S11336606A0170936B0180936C0190936D010895CE
S1133670809102010E94031B90936701809366016D
S1133680BC0180E090E00E94AF272AE037ED43E2DE
S113369050E40E94662820E030EC4FE754E40E9496
S11336A007272AEA32E849E150E40E946628609339
S11336B05E0170935F0180936001909361010895AE
S11336C08F929F92AF92BF92CF92DF92EF92FF922E
S11336D00E94161BC0906A01D0906B01E0906C01AF
S11336E0F0906D0120E030E040ED5FE3C701B601EA
S11336F00E94662821E536E643E350E40E949626BC
S113370020E030E74CE356E40E9466284B015C015C
S11337102FE832EC4DE350E4C701B6010E9466285D
S11337209B01AC016DEB7CE886E091E40E94952658
S11337309B01AC01C501B4010E940727609362019B
S113374070936301809364019093650120E030E0FD
S11337504AE754E40E9407272BE63BE246E35FEB8B
S11337600E94D3282DEC3CE445EE53E40E946628E5
S113377028EF33E543E950E40E9496260E9480270F
S113378070936901609368016336710538F083E6CC
S113379090E0909369018093680109C065317105D7
S11337A030F481E090E09093010180930001FF9058
S11337B0EF90DF90CF90BF90AF909F908F9008953F
S11337C0CF92DF92EF92FF9260916801709169014C
S11337D080E090E00E94AF276B017C0120E030E0A4
S11337E040EF50E40E94612888235CF020E030E040
S11337F048E451E4C701B6010E94022788230CF46F
S1133800F6C020E030E048E451E4C701B6010E946C
S1133810612888235CF020E030E04CE851E4C701E3
S1133820B6010E94022788230CF4E4C020E030E0B3
S11338304CE851E4C701B6010E94612888235CF07A
S113384020E030E044EB51E4C701B6010E940227B6
S113385088230CF4D2C020E030E044EB51E4C701EB
S1133860B6010E94612888235CF020E030E04CED32
S113387051E4C701B6010E94022788230CF4C0C09A
S113388020E030E04CED51E4C701B6010E9461280C
S113389088235CF020E030E042E052E4C701B60146
S11338A00E94022788230CF4AEC020E030E042E0FE
S11338B052E4C701B6010E94612888235CF020E02D
S11338C030E046E152E4C701B6010E940227882392
S11338D00CF49CC020E030E046E152E4C701B6019C
S11338E00E94612888235CF020E030E04AE252E440
S11338F0C701B6010E94022788230CF48AC020E085
S113390030E04AE252E4C701B6010E9461288823EC
S11339105CF020E030E04EE352E4C701B6010E94BF
S1133920022788230CF478C020E030E04EE352E410
S1133930C701B6010E94612888235CF020E030E0D2
S113394042E552E4C701B6010E94022788230CF421
S113395066C020E030E042E552E4C701B6010E94AF
S1133960612888235CF020E030E046E652E4C70199
S1133970B6010E94022788230CF454C020E030E0F2
S113398046E652E4C701B6010E94612888235CF030
S113399020E030E04AE752E4C701B6010E94022762
S11339A088230CF442C020E030E04AE752E4C70127
S11339B0B6010E94612888236CF020E030E047E8DB
S11339C052E4C701B6010E94022788238CF183E6E2
S11339D090E033C020E030E04AE752E4C701B6018A
S11339E00E94612888233CF580E090E026C08AE0AC
S11339F090E023C08FE090E020C084E190E01DC0FF
S1133A0089E190E01AC08EE190E017C083E290E073
S1133A1014C088E290E011C08DE290E00EC082E311
S1133A2090E00BC087E390E008C08CE390E005C011
S1133A3081E490E002C083E690E0FF90EF90DF9095
S1133A40CF9008955A9A5B9A5C9A0895CF92EF9218
S1133A500F93CF93529A539A549A559A579A569AC7
S1133A600E94221D0E940D1F0E941C1F66E083E01D
S1133A700E940021C82E67E083E00E940021E82E06
S1133A8065E083E00E940021082F62E081E00E944B
S1133A900021C82F61E081E00E940021482F2C2FD3
S1133AA064E071E086E092E00E94172561E086E020
S1133AB092E00E94692564E686E092E00E94502527
S1133AC0CF910F91EF90CF9008955A985B985C989E
S1133AD0089580915C0190915D01019771F468E013
S1133AE070E286E092E00E94FA2322E131E049E1AB
S1133AF060E086E092E00E946E2380910001909144
S1133B000101019779F462E072E086E092E00E949C
S1133B10FA232CE331E048E365E086E092E00E947A
S1133B206E23089568E070E286E092E00E94FA2332
S1133B3022EF31E04AE060E086E092E00E946E23EA
S1133B402BE432E046E160E086E092E00E946E23DE
S1133B502FE332E042E260E086E092E00E946E23CE
S1133B602CEF31E04EE260E086E092E00E946E23AA
S1133B7025E532E04AE360E086E092E00E946E23AD
S1133B8008958F929F92AF92BF92CF92DF92EF925D
S1133B90FF92CF93DF930E94601B0E94381BC0905A
S1133BA05E01D0905F01E0906001F09061012FE12F
S1133BB035E84BE850E4C701B6010E940227882388
S1133BC034F080913D0290913E02019749F482E0E5
S1133BD090E090935D0180935C010E94651D15C087
S1133BE02CEE31E548E950E4C701B6010E940227F2
S1133BF088233CF481E090E090935D0180935C0124
S1133C0004C010925D0110925C01809100019091BA
S1133C100101019779F420915A0130915B0180915F
S1133C206801909169012817390721F01092010168
S1133C301092000180916F018F9380916E018F9398
S1133C408EE191E09F938F9382EF91E09F938F9306
S1133C500E94672A80906A0190906B01A0906C0189
S1133C60B0906D01C501B4010E9479276B017C01FC
S1133C70072E000C880B990B0E94B1279B01AC0105
S1133C80C501B4010E94952620E030E048EC52E4DE
S1133C900E9466280E9479277F936F93DF92CF92C8
S1133CA087E291E09F938F938BE492E09F938F93AD
S1133CB00E94672A6091620170916301809164019E
S1133CC0909165010E9480279F938F937F936F93B8
S1133CD081E391E09F938F938FE392E09F938F937F
S1133CE00E94672A8DB79EB746960FB6F8949EBF7A
S1133CF00FBE8DBF8091000190910101019799F44D
S1133D0088E0E9E3F1E0ACEFB1E001900D928A952F
S1133D10E1F789E0E1E4F1E0A5E5B2E001900D927C
S1133D208A95E1F744C0E0906801F0906901B70119
S1133D3080E090E00E94AF2720E030E047E852E4C2
S1133D400E94612818169CF488E0EAE4F1E0ACEFE4
S1133D50B1E001900D928A95E1F788E0EAE4F1E0A0
S1133D60A5E5B2E001900D928A95E1F720C0FF929B
S1133D70EF92C2E5D1E0DF93CF938CEF91E09F9374
S1133D808F930E94672A0E94E01B9F938F93DF9377
S1133D90CF9385E592E09F938F930E94672A8DB716
S1133DA09EB70C960FB6F8949EBF0FBE8DBF86E0EB
S1133DB092E00E943A250E94691D86E092E00E94EA
S1133DC040258111F8CFDF91CF91FF90EF90DF90E4
S1133DD0CF90BF90AF909F908F900895E1E6F0E070
S1133DE080E8808310820E94FB1A0E94261D0E9494
S1133DF0601B809168019091690190935B018093AD
S1133E005A010E94C11D2FEF83EC99E0215080409C
S1133E109040E1F700C00000F4CFE1E8F0E08081D9
S1133E208860808380818460808384E294EF9093AF
S1133E308900809388000895EFE6F0E08081826035
S1133E40808310924A021092490210923E0210920C
S1133E503D0208951F920F920FB60F9211242F93D3
S1133E608F939F938091490290914A020196909377
S1133E704A02809349028538934030F081E090E013
S1133E8090933E0280933D029F918F912F910F90CA
S1133E900FBE0F901F9018950F93FC010150040F53
S1133EA084A996A9941738F0081768F481E00417D8
S1133EB040F080E006C00817D0F081E0041708F055
S1133EC080E08823C9F02150260F83A995A996176D
S1133ED038F0281770F481E0261770F080E00CC0E9
S1133EE0281748F081E0261738F080E005C080E00C
S1133EF003C081E001C080E00F910895DB011496B6
S1133F00ED91FC91159720E030E061E0099508956A
S1133F10DB011496ED91FC91159720E030E063E00D
S1133F2009950895DB011496ED91FC91159720E015
S1133F3030E040E064E009950895DB011496ED91CA
S1133F40FC91159720E030E041E064E00995089584
S1133F50DB011496ED91FC91159720E030E062E0CE
S1133F6009950895DB011496ED91FC91159720E0D5
S1133F7030E065E009950895DB011496ED91FC911C
S1133F80159766E009950895AF92BF92CF92DF929C
S1133F90EF92FF920F931F93CF93DF936C017B01FA
S1133FA08A01D0E0B12CAA24A394F801C491D111C0
S1133FB00BC0CF3F09F44AC04C2FB701C6010E9481
S1133FC0B21F811148C04BC0CF3F51F44FEFB7012E
S1133FD0C6010E94B21F882309F441C0DB2D3BC0F7
S1133FE0CE3FE1F1C03FA0F5C03E40F04C2F4F70F2
S1133FF0B701C6010E94A81FDB2D2DC0C03D40F0B3
S11340004C2F4F70B701C6010E94881FDB2D23C0BF
S1134010C03CA0F0B701C6010E94921FC295C07FA8
S1134020CE5FD0E0CE010E946121B701C6010E949B
S11340309D1FCE010E946121DB2D0DC0CC2354F0C5
S11340408C2F90E00E946121DB2D05C0DA2D03C086
S1134050DB2D01C0DB2D0F5F1F4FA7CF81E0DF9168
S1134060CF911F910F91FF90EF90DF90CF90BF9071
S1134070AF9008950F931F93CF93DF938C01D62FA6
S1134080C8E04D2F407865E0C8010E945721DD0F3C
S113409041E064E0C8010E9457210E946B2140E086
S11340A064E0C8010E9457210E946B21C15049F766
S11340B0DF91CF911F910F910895CF92DF92EF92EC
S11340C0FF920F931F93CF93DF937C01E901062F97
S11340D010E0F8013197E730F10508F070C0EA5AB2
S11340E0FF4F0C94582A411149C069C0411157C06F
S11340F066C064E00E944E2165E0C7010E944E2123
S113410061E0C7010E944E2162E0C7010E944E2176
S113411060E0C7010E944E2140E064E0C7010E94B4
S1134120572140E065E0C7010E94572141E062E069
S1134130C7010E94572140E061E0C7010E94572156
S11341403EC061E00E9457213AC0411105C041E0E0
S113415062E00E94572133C040E064E00E9457218E
S113416040E062E0C7010E94572129C060E00E943C
S1134170572125C0642F0E943A2021C06E0141506E
S113418050E04F5F5F4FC40FD51FF60161916F017F
S1134190C7010E943A20CC16DD06B9F710C0415081
S11341A0042F10E00F5F1F4F0C0F1D1FFE016491C1
S11341B0C7010E943A202196C017D107B9F781E0C0
S11341C0DF91CF911F910F91FF90EF90DF90CF90EF
S11341D00895CF93DF9300D0CDB7DEB770E0660FBC
S11341E0771F680F791F42E050E0CE0101960E94CC
S11341F05E2A89819A810F900F90DF91CF91089563
S1134200880F880F880F860F0895CF93C82F682FC3
S113421066956695669580EB91E00E94E920FC0125
S11342204081C77021E030E002C0220F331FCA95DD
S1134230E2F7242B2083CF910895CF93DF93C82FE7
S1134240D62F682F66956695669584EA91E00E945C
S1134250E920D11111C04FB7F894FC015081C77007
S113426021E030E002C0220F331FCA95E2F7209507
S1134270252320834FBF0FC04FB7F894FC01508112
S1134280C77021E030E002C0220F331FCA95E2F765
S1134290252B20834FBFDF91CF910895860F911D69
S11342A0FC0183A18F3F11F00E9405210895860F20
S11342B0911DFC0183A18F3F19F0642F0E941D21E1
S11342C00895009739F02EE93FE0F9013197F1F7AD
S11342D00197D9F7089584E090E00197F1F70895E4
S11342E0AF92BF92CF92DF92EF92FF920F931F9300
S11342F0CF937C018B01C42F6901403109F452C072
S113430028F44A3049F04F3089F158C0413109F45A
S11343104FC0453159F052C043E00E947E1F4CED1E
S113432051E0B801C7010E94C41F48C0FB01A2802C
S1134330B38044ED51E00E94C41FF5014481406BF9
S1134340B801C7010E94B21F41E0B801C7010E9431
S1134350A81FA801B701C5010E94D2258823A1F195
S113436040E0B801C7010E94881F28C041E00E94B4
S1134370881F40E0B801C7010E94A81F41E8B801A6
S1134380C7010E94B21FF601408146954695B801C7
S1134390C7010E94B21F40E0B801C7010E94881FF4
S11343A081E012C048EC51E00E94C41F81E00CC0BF
S11343B04CEB51E00E94C41F81E006C096014C2FD3
S11343C0B801C7010E944626CF911F910F91FF901B
S11343D0EF90DF90CF90BF90AF900895FC01E60F6F
S11343E0F11D849190E0982F88273196E4918E0FE7
S11343F0911D0895FC01849108950E94FA21882357
S113440021F0823011F083E0089586E0089580E081
S1134410089566E00E94EE21089568E00E94EE216E
S113442008950A96FC01849108950B96FC018491E9
S11344300895AF92BF92CF92DF92EF92FF920F93C3
S11344401F93CF93DF937C01B62EDC011496CD919C
S1134450DC911597CE010E94FA21182FF70184816F
S113446095810E94FD21D82E113029F40F2EFFE0F2
S1134470AF2EF02D02C0AA24AA94D70114968D91D0
S11344809C9115970E941122182FF7018481958120
S11344900E941522082FD70114968D919C9115978F
S11344A00E940D22B0E6BB1530F4009721F0C80F2E
S11344B0D91F11E60FC0F701848195810E9409225A
S11344C0F0E4FB1530F4009721F0C80FD91F11E474
S11344D001C061960B1590F4D70150961C92509729
S11344E053961C92539754961C92549751961C922F
S11344F0519752961C9280E090E075C0011708F421
S11345006AC02D2D30E06E01FE0194919F3F11F49D
S113451021965DC01B1152C08E01D70114968D9156
S11345209C9115970E94FA21882311F08230F1F4AE
S1134530F601C490D7015396CC925397F801319663
S1134540E4915496EC935497F8013396E491509681
S1134550EC935097F8013496E4915196EC9351976B
S1134560F8013596E4915296EC9325C0FE018491AE
S1134570982F9F709250D70152969C935297C82EB1
S1134580C694C694C694C6945196CC925197FE0193
S11345903196E4918E2F8F7054968C935497E295B4
S11345A0EF705396EC935397FE013296E491E295A3
S11345B0EF705096EC938C2F9D2F15C0FE01329610
S11345C0E491EA21C9018E0F911DC80FD91F10175C
S11345D011F01F5F98CFF701108A138A148A118A89
S11345E0128A80E090E0DF91CF911F910F91FF90AC
S11345F0EF90DF90CF90BF90AF9008956F927F922D
S11346008F929F92AF92BF92CF92DF92EF92FF92DE
S11346100F931F93CF93DF935C01162F642E622FA9
S11346200E9419226C01892B09F448C0F501848188
S113463095810E94FD21982EF501D389C489718842
S1134640710E9289691AF62CFC1A0C2F2D2F4F2DFE
S1134650672DC5010E944C1F811103C0F50180899B
S11346602EC0D95FED2EE694E694E694CC2319F19E
S1134670E601C90DD11D88248A948E0C912CFFEF7C
S11346808F1A9F0A11C0FE01049120E04F2D612F63
S1134690C5010E9457252196185FCC15DD0599F7B1
S11346A0E601F394F61439F0EE20D9F36E01C80C48
S11346B0D91C172DE8CFF501808901C080E0DF9176
S11346C0CF911F910F91FF90EF90DF90CF90BF900B
S11346D0AF909F908F907F906F900895CF92DF92CC
S11346E0FF920F931F93CF93DF936C01C62FF42E89
S11346F08901DC015596ED91FC9156970995F80EC8
S1134700F8012081222381F00F5F1F4FD0E04F2D4D
S11347106C2FC6010E94FE22C80FD80FD8012D911C
S11347208D012111F4CF01C0D0E08D2FDF91CF9105
S11347301F910F91FF90DF90CF900895DC011496A4
S11347408D919C911597009709F44DC057962C9123
S1134750579721110DC0FC013596E4915896EC93BE
S11347605897FC013C96E4915996EC9359971BC0D9
S1134770213069F4FC013F96E4915896EC935897E4
S1134780FC017096E4915996EC9359970CC0FC0186
S11347903D96E4915896EC935897FC013E96E4912B
S11347A05996EC93599758968C915897082E000C6B
S11347B0990B59962C915997821B910927FD939532
S11347C05A962C915A97203461F0829FC00111248B
S11347D00024880F991F001C880F991F001C892F23
S11347E0902D5B968C93089527E032E2FC01368B82
S11347F0258B0895CF93DF93FC01248135812617FF
S1134800370749F0EC01758364830E949E2387E097
S113481092E29E8B8D8BDF91CF9108951F93CF935E
S1134820DF93EC011D821C821F821E82198681E0A7
S1134830888782E28A871F861E86FE01B3969E01C0
S11348402F5C3F4F8FEF8193E217F307E1F711E0FD
S113485018A3CE010E94F4231F8B188E198E80E4B6
S11348608A8F1B8E84E996E29AAB89ABDF91CF9154
S11348701F910895DB01ED91FC91099508950F9323
S11348801F93CF93DF93EC018B01E9A9FAA982E08E
S1134890099520E030E04AE0B801CE010E943A24B4
S11348A0182FE9A9FAA983E00995E9A9FAA980E0F2
S11348B00995812FDF91CF911F910F9108950F9347
S11348C01F93CF93DF93EC018B01E9A9FAA982E04E
S11348D00995E9A9FAA981E0099520E030E044E1CD
S11348E0B801CE010E943A249E012D5C3F4F47E15E
S11348F0B801CE010E943A24E9A9FAA980E00995F9
S1134900DF91CF911F910F910895EF92FF921F9322
S1134910CF93DF93EC017B01E9A9FAA982E0099521
S1134920E9A9FAA981E0099520E030E045E1B70161
S1134930CE010E943A24182F882341F09E012D5C59
S11349403F4F47E1B701CE010E943A24E9A9FAA9F1
S113495080E00995812FDF91CF911F91FF90EF9017
S11349600895CF93DF931F92CDB7DEB749839E019D
S11349702F5F3F4F4FE00E943A240F90DF91CF9179
S11349800895CF93DF931F92CDB7DEB79E012F5FBB
S11349903F4F46E40E943A2489810F90DF91CF91E2
S11349A00895CF93DF931F92CDB7DEB79E012F5F9B
S11349B03F4F47E40E943A2489810F90DF91CF91C1
S11349C0089520E030E048E40E943A240895CF930B
S11349D0DF93EC016A817B810E94C12488836A8110
S11349E07B81CE010E94D12489836A817B81CE019F
S11349F00E94E1248B879E012D5C3F4F6A817B815D
S1134A0047E1CE010E943A24DF91CF910895CF93DC
S1134A10DF93EC016A817B810E943F24882321F08B
S1134A20CE010E94E72481E0DF91CF910895AF92F7
S1134A30BF92CF92EF92FF920F931F93CF93DF9386
S1134A40EC015B01F42E122F0E940E24BB82AA8279
S1134A50FFA218A70DA3ECA2CBA2CE010E940725AA
S1134A60DF91CF911F910F91FF90EF90CF90BF9066
S1134A70AF900895FC01628173810E945F240895C0
S1134A80CF93DF93EC01EE85FF85309709F009950C
S1134A906A817B81CE010E948524DF91CF910895A4
S1134AA0462FFC01628173810E94B12408950F9303
S1134AB0FC0182819381648F458F278F068F9F012C
S1134AC0245E3F4F4BE3BC01CF010E943A240F9177
S1134AD00895FC0160A30895FC0112828081815035
S1134AE0838314820895FC0190818281890F8283DB
S1134AF02181821760F484818F5F84838381980F7E
S1134B00921710F09FEF920F938381E0089580E055
S1134B100895DC011696ED91FC91179715968C91EA
S1134B209F01280F311DC9011192E817F907E1F718
S1134B300895FC0191E08381861708F490E031E048
S1134B40461708F030E0832F892B21E05281451766
S1134B5008F420E02823832F8923822B0895DC0185
S1134B60FB01108212968C911297818315968C9179
S1134B7015978150828313968C9183830895FB014A
S1134B8031812381213019F0233021F006C048E01F
S1134B90430F04C0432F385001C0432F632F0E949A
S1134BA099250895FC01CB01BA01268137814581FD
S1134BB00E94BC1F0895DC011696ED91FC91179795
S1134BC012968C91481B477081E090E002C0880FD8
S1134BD0991F4A95E2F7E60FF11D222321F09081F7
S1134BE0892B8083089580959081892380830895FB
S1134BF0FB014181FC012281421770F023812417BB
S1134C0058F0FB013081FC012581321728F4FB01A7
S1134C102481632F0E94DB250895DF92EF92FF9297
S1134C200F931F93CF93DF937C01EB011A818B8148
S1134C30813049F028F0823051F0833059F00EC0B1
S1134C40D12C01E00DC0DD24D39400E009C0D12CA7
S1134C500FEF06C0DD24DA9400E002C0D12C00E09E
S1134C60112324F4BE01C7010E94F8259881900FF6
S1134C70988399819D0D9983110F91F7DF91CF91BD
S1134C801F910F91FF90EF90DF9008950F931F9362
S1134C90CF93DF93FB01C281D38150E0FA01749773
S1134CA0E433F105C8F58901E35AFF4F0C94582AFF
S1134CB0B901CE010E94BF25882381F1B801CE013C
S1134CC00E940D2681E02BC0B901CE010E94F82577
S1134CD081E025C0CE010E948925CE010E946C2569
S1134CE081E01DC0CE010E9473258823C1F0CE014E
S1134CF00E94892581E013C0B901CE010E94AF252D
S1134D0081E00DC08D81F901808381E008C0898133
S1134D10F901808381E003C081E001C081E0DF917B
S1134D20CF911F910F91089508955058BB27AA273A
S1134D300E94AD260C9427280E94192838F00E945E
S1134D40202820F039F49F3F19F426F40C941628F7
S1134D500EF4E095E7FB0C941028E92F0E94382804
S1134D6058F3BA17620773078407950720F079F49C
S1134D70A6F50C945A280EF4E0950B2EBA2FA02D0C
S1134D800B01B90190010C01CA01A0011124FF27F4
S1134D90591B99F0593F50F4503E68F11A16F040EF
S1134DA0A22F232F342F4427585FF3CF46953795EE
S1134DB02795A795F0405395C9F77EF41F16BA0BB3
S1134DC0620B730B840BBAF09150A1F0FF0FBB1F61
S1134DD0661F771F881FC2F70EC0BA0F621F731FAA
S1134DE0841F48F4879577956795B795F7959E3F07
S1134DF008F0B0CF9395880F08F09927EE0F979598
S1134E00879508950E94EC2708F481E008950E9494
S1134E101B270C9427280E94202858F00E94192848
S1134E2040F029F45F3F29F00C94102851110C94A0
S1134E305B280C9416280E94382868F39923B1F350
S1134E40552391F3951B550BBB27AA2762177307AC
S1134E50840738F09F5F5F4F220F331F441FAA1F40
S1134E60A9F335D00E2E3AF0E0E832D091505040FC
S1134E70E695001CCAF72BD0FE2F29D0660F771FAA
S1134E80881FBB1F261737074807AB07B0E809F090
S1134E90BB0B802DBF01FF2793585F4F3AF09E3F15
S1134EA0510578F00C9410280C945B285F3FE4F3D0
S1134EB0983ED4F3869577956795B795F7959F5F58
S1134EC0C9F7880F911D9695879597F90895E1E0A4
S1134ED0660F771F881FBB1F621773078407BA0703
S1134EE020F0621B730B840BBA0BEE1F88F7E0955E
S1134EF008950E9480276894B1110C945B2808954A
S1134F000E94402888F09F5798F0B92F9927B751ED
S1134F10B0F0E1F0660F771F881F991F1AF0BA9559
S1134F20C9F714C0B13091F00E945A28B1E0089535
S1134F300C945A28672F782F8827B85F39F0B93F27
S1134F40CCF3869577956795B395D9F73EF490950C
S1134F508095709561957F4F8F4F9F4F0895E8948A
S1134F6009C097FB3EF490958095709561957F4FAD
S1134F708F4F9F4F9923A9F0F92F96E9BB2793955B
S1134F80F695879577956795B795F111F8CFFAF46B
S1134F90BB0F11F460FF1BC06F5F7F4F8F4F9F4F9C
S1134FA016C0882311F096E911C0772321F09EE8FA
S1134FB0872F762F05C0662371F096E8862F70E060
S1134FC060E02AF09A95660F771F881FDAF7880F3A
S1134FD09695879597F90895990F0008550FAA0B90
S1134FE0E0E8FEEF16161706E807F907C0F01216F8
S1134FF01306E407F50798F0621B730B840B950BFB
S113500039F40A2661F0232B242B252B21F408954F
S11350100A2609F4A140A6958FEF811D811D0895EC
S113502097F99F6780E870E060E008959FEF80EC57
S1135030089500240A9416161706180609060895FA
S113504000240A9412161306140605060895092E60
S11350500394000C11F4882352F0BB0F40F4BF2BCF
S113506011F460FF04C06F5F7F4F8F4F9F4F08950F
S113507057FD9058440F551F59F05F3F71F0479505
S1135080880F97FB991F61F09F3F79F087950895EA
S1135090121613061406551FF2CF4695F1DF08C009
S11350A0161617061806991FF1CF86957105610526
S11350B008940895E894BB2766277727CB0197F9CE
S11350C008950E94EC2708F48FEF08950E94792830
S11350D00C9427280E94192838F00E94202820F0D8
S11350E0952311F00C9410280C94162811240C9478
S11350F05B280E94382870F3959FC1F3950F50E008
S1135100551F629FF001729FBB27F00DB11D639F75
S1135110AA27F00DB11DAA1F649F6627B00DA11D1B
S1135120661F829F2227B00DA11D621F739FB00DC1
S1135130A11D621F839FA00D611D221F749F332731
S1135140A00D611D231F849F600D211D822F762FCA
S11351506A2F11249F5750409AF0F1F088234AF0A7
S1135160EE0FFF1FBB1F661F771F881F9150504013
S1135170A9F79E3F510580F00C9410280C945B28ED
S11351805F3FE4F3983ED4F3869577956795B7959A
S1135190F795E7959F5FC1F7FE2B880F911D9695B4
S11351A0879597F90895FA01EE0FFF1F30962105B0
S11351B03105A1F16115710561F48038BFE39B07E6
S11351C049F168949038810561F08038BFEF9B07FE
S11351D041F099234AF5FF3FE1053105210519F115
S11351E0E8940894E795D901AA2329F4AB2FBE2F9C
S11351F0F85FD0F310C0FF5F70F4A695E0F7F739BD
S113520050F019F0FF3A38F49F779F930DD00F9028
S113521007FC9058089546F00C94162860E070E05E
S113522080E89FE308954FE79F775F934F933F9301
S11352302F930E94CE292F913F914F915F910E940D
S113524066280C942B2929F416F00C9410280C943D
S11352505A280C9416280E944028A8F39638A0F7E0
S113526007F80F92E8942BE33AEA48EB5FE70E94D1
S11352707C280F920F920F924DB75EB70F920E9447
S1135280162AE2E2F1E00E945D294F915F91EF91CD
S1135290FF91E595EE1FFF1F49F0FE57E068442794
S11352A0EE0F441FFA95E1F74195550B0E949029A2
S11352B00F9007FE0C9484290895DF93CF931F93D6
S11352C00F93FF92EF92DF927B018C01689406C0EA
S11352D0DA2EEF010E947928FE01E894A591259128
S11352E0359145915591A6F3EF010E94AD26FE013B
S11352F09701A801DA9469F7DF90EF90FF900F917E
S11353001F91CF91DF9108959B01AC0160E070E0A3
S113531080E89FE30C9407270C9410280C944A2AE5
S11353200E944028D8F39923C9F3940F511DA3F385
S11353309150504094F059F0882332F0660F771F53
S1135340881F91505040C1F79E3F51052CF7880F9C
S1135350911D9695879597F908955F3FACF0983E17
S11353609CF0BB27869577956795B79508F4B1604F
S11353709395C1F7BB0F58F711F460FFE8CF6F5F47
S11353807F4F8F4F9F4FE3CF0C945B2816F00C9404
S11353904A2A0C94162868940C9410280E944028D9
S11353A0A8F39923C1F3AEF3DF93CF931F930F9325
S11353B0FF92C92FDD2788232AF02197660F771FD4
S11353C0881FDAF720E030E040E85FEB9FE388399C
S11353D020F0803E38F021968F770E949626EAE4EA
S11353E0F1E004C00E949626E7E7F1E00E945D29FF
S11353F08B01BE01EC01FB2E6F5771097595771F68
S1135400880B990B0E94B12728E132E741E35FE35F
S11354100E947928AF2D9801AE01FF900F911F9142
S1135420CF91DF910E94AD260C942728FA01DC016C
S1135430AA0FBB1F9B01AC01BF5728F422273327B7
S11354404427507820C0B75190F4AB2F00244695E0
S113545037952795011CA395D2F3002071F0220FF4
S1135460331F441FB395DAF30ED00C9495266130A4
S11354707105A0E88A07B94630F49B01AC016627A0
S1135480772788279078309621F0208331834283D0
S1135490538308959F3F31F0915020F48795779579
S11354A06795B795880F911D9695879597F90895F7
S11354B0EE0FFF1F0590F491E02D0994FB01DC0130
S11354C002C005900D9241505040D8F70895AEE0C7
S11354D0B0E0EDE6FAE20C94162D0D891E8986E003
S11354E08C831A8309838FEF9FE79E838D83AE019C
S11354F0475E5F4F6F89788DCE0101960E948A2A9C
S11355002F813885F801E20FF31F10822E96E4E014
S11355100C94322DACE0B0E0E0E9FAE20C94082DF2
S11355207C016B018A01FC0117821682838181FF51
S1135530BDC1CE0101964C01F7019381F60193FDA3
S1135540859193FF81916F01882309F4ABC1853262
S113555039F493FD859193FF81916F01853229F48C
S1135560B70190E00E94722CE7CF512C312C20E03F
S11355702032A0F48B3269F030F4803259F0833257
S113558069F420612CC08D3239F0803339F4216004
S113559026C02260246023C0286021C027FD27C0C4
S11355A030ED380F3A3078F426FF06C0FAE05F9EFB
S11355B0300D1124532E13C08AE0389E300D11246F
S11355C0332E20620CC08E3221F426FD6BC1206480
S11355D006C08C3611F4206802C0883641F4F60106
S11355E093FD859193FF81916F018111C1CF982F14
S11355F09F7D9554933028F40C5F1F4FFFE3F9838C
S11356000DC0833631F0833771F0833509F05BC008
S113561022C0F801808189830E5F1F4F4424439484
S1135620512C540115C03801F2E06F0E711CF801C1
S1135630A080B18026FF03C0652D70E002C06FEF2B
S11356407FEFC5012C870E94672C2C0183012C85D8
S11356502F77222E17C03801F2E06F0E711CF8016B
S1135660A080B18026FF03C0652D70E002C06FEFFB
S11356707FEFC5012C870E945C2C2C012C852068AF
S1135680222E830123FC1BC0832D90E0481659066B
S1135690B0F4B70180E290E00E94722C3A94F4CF07
S11356A0F50127FC859127FE81915F01B70190E008
S11356B00E94722C31103A94F1E04F1A51084114AF
S11356C0510471F7E5C0843611F0893639F5F801D3
S11356D027FF07C060817181828193810C5F1F4F16
S11356E008C060817181072E000C880B990B0E5F36
S11356F01F4F2F76722E97FF09C090958095709555
S113570061957F4F8F4F9F4F2068722E2AE030E0C3
S1135710A4010E94AA2CA82EA81844C0853729F4F5
S11357202F7EB22E2AE030E025C0F22FF97FBF2E63
S11357308F36C1F018F4883579F0B4C0803719F089
S1135740883721F0AFC02F2F2061B22EB4FE0DC0D8
S11357508B2D8460B82E09C024FF0AC09F2F966049
S1135760B92E06C028E030E005C020E130E002C0D8
S113577020E132E0F801B7FE07C0608171818281C7
S113578093810C5F1F4F06C06081718180E090E0BF
S11357900E5F1F4FA4010E94AA2CA82EA818FB2D4F
S11357A0FF777F2E76FE0BC0372D3E7FA51450F475
S11357B074FE0AC072FC08C0372D3E7E05C0BA2CA8
S11357C0372D03C0BA2C01C0B52C34FF0DC0FE0127
S11357D0EA0DF11D8081803311F4397E09C032FF56
S11357E006C0B394B39404C0832F867809F0B394AD
S11357F033FD13C030FF06C05A2CB31418F4530CF5
S11358005B18B32CB31468F4B70180E290E03C87D2
S11358100E94722CB3943C85F5CFB31410F43B185A
S113582001C0312C34FF12C0B70180E390E03C8703
S11358300E94722C3C8532FF17C031FD03C088E7FB
S113584090E002C088E590E0B7010CC0832F867811
S113585059F031FF02C08BE201C080E237FD8DE2D6
S1135860B70190E00E94722CA51438F4B70180E3CC
S113587090E00E94722C5A94F7CFAA94F401EA0D96
S1135880F11D8081B70190E00E94722CA110F5CF28
S1135890332009F451CEB70180E290E00E94722CCB
S11358A03A94F6CFF7018681978102C08FEF9FEF7C
S11358B02C96E2E10C94242DFC010590615070407B
S11358C00110D8F7809590958E0F9F1F0895FC01C5
S11358D06150704001900110D8F7809590958E0F1B
S11358E09F1F08950F931F93CF93DF93FB01238191
S11358F021FD03C08FEF9FEF28C022FF16C0468111
S11359005781248135814217530744F4A081B18122
S11359109D012F5F3F4F318320838C9326813781F4
S11359202F5F3F4F3783268310C0EB01092F182FB9
S11359300084F185E02D0995892BE1F68E819F8104
S113594001969F838E83812F902FDF91CF911F919A
S11359500F910895FA01AA27283051F1203181F1DD
S1135960E8946F936E7F6E5F7F4F8F4F9F4FAF4F63
S1135970B1E03ED0B4E03CD0670F781F891F9A1F76
S1135980A11D680F791F8A1F911DA11D6A0F711D2A
S1135990811D911DA11D20D009F468943F912AE036
S11359A0269F11243019305D3193DEF6CF0108951E
S11359B0462F4770405D4193B3E00FD0C9F7F6CF4F
S11359C0462F4F70405D4A3318F0495D31FD405217
S11359D0419302D0A9F7EACFB4E0A69597958795AD
S11359E077956795BA95C9F700976105710508958C
S11359F09B01AC010A2E0694579547953795279538
S1135A00BA95C9F7620F731F841F951FA01D0895CF
S1135A102F923F924F925F926F927F928F929F92BA
S1135A20AF92BF92CF92DF92EF92FF920F931F93A8
S1135A30CF93DF93CDB7DEB7CA1BDB0B0FB6F89459
S1135A40DEBF0FBECDBF09942A88398848885F8499
S1135A506E847D848C849B84AA84B984C884DF800A
S1135A60EE80FD800C811B81AA81B981CE0FD11DEE
S1135A700FB6F894DEBF0FBECDBFED010895F894C4
S1055A80FFCF52
S1135A820100010070210A015D200840000000802D
S1135A9272014C4F572042415454455259004144DB
S1135AA2433A3D20257500563A3D2025642E25644F
S1135AB200523A3D20256C7500503A20575241500D
S1135AC200503A3D205752415000503A3D2036355D
S10D5AD22B00503A3D20256400002B
S9030000FC
